{
  "_format": "hh-sol-artifact-1",
  "contractName": "TestPYUSD",
  "sourceName": "contracts/TestPYUSD.sol",
  "abi": [
    {
      "inputs": [
        {
          "internalType": "string",
          "name": "name",
          "type": "string"
        },
        {
          "internalType": "string",
          "name": "symbol",
          "type": "string"
        },
        {
          "internalType": "uint8",
          "name": "decimals_",
          "type": "uint8"
        },
        {
          "internalType": "uint256",
          "name": "initialSupply",
          "type": "uint256"
        }
      ],
      "stateMutability": "nonpayable",
      "type": "constructor"
    },
    {
      "inputs": [
        {
          "internalType": "address",
          "name": "spender",
          "type": "address"
        },
        {
          "internalType": "uint256",
          "name": "allowance",
          "type": "uint256"
        },
        {
          "internalType": "uint256",
          "name": "needed",
          "type": "uint256"
        }
      ],
      "name": "ERC20InsufficientAllowance",
      "type": "error"
    },
    {
      "inputs": [
        {
          "internalType": "address",
          "name": "sender",
          "type": "address"
        },
        {
          "internalType": "uint256",
          "name": "balance",
          "type": "uint256"
        },
        {
          "internalType": "uint256",
          "name": "needed",
          "type": "uint256"
        }
      ],
      "name": "ERC20InsufficientBalance",
      "type": "error"
    },
    {
      "inputs": [
        {
          "internalType": "address",
          "name": "approver",
          "type": "address"
        }
      ],
      "name": "ERC20InvalidApprover",
      "type": "error"
    },
    {
      "inputs": [
        {
          "internalType": "address",
          "name": "receiver",
          "type": "address"
        }
      ],
      "name": "ERC20InvalidReceiver",
      "type": "error"
    },
    {
      "inputs": [
        {
          "internalType": "address",
          "name": "sender",
          "type": "address"
        }
      ],
      "name": "ERC20InvalidSender",
      "type": "error"
    },
    {
      "inputs": [
        {
          "internalType": "address",
          "name": "spender",
          "type": "address"
        }
      ],
      "name": "ERC20InvalidSpender",
      "type": "error"
    },
    {
      "inputs": [
        {
          "internalType": "address",
          "name": "owner",
          "type": "address"
        }
      ],
      "name": "OwnableInvalidOwner",
      "type": "error"
    },
    {
      "inputs": [
        {
          "internalType": "address",
          "name": "account",
          "type": "address"
        }
      ],
      "name": "OwnableUnauthorizedAccount",
      "type": "error"
    },
    {
      "anonymous": false,
      "inputs": [
        {
          "indexed": true,
          "internalType": "address",
          "name": "owner",
          "type": "address"
        },
        {
          "indexed": true,
          "internalType": "address",
          "name": "spender",
          "type": "address"
        },
        {
          "indexed": false,
          "internalType": "uint256",
          "name": "value",
          "type": "uint256"
        }
      ],
      "name": "Approval",
      "type": "event"
    },
    {
      "anonymous": false,
      "inputs": [
        {
          "indexed": true,
          "internalType": "address",
          "name": "previousOwner",
          "type": "address"
        },
        {
          "indexed": true,
          "internalType": "address",
          "name": "newOwner",
          "type": "address"
        }
      ],
      "name": "OwnershipTransferred",
      "type": "event"
    },
    {
      "anonymous": false,
      "inputs": [
        {
          "indexed": true,
          "internalType": "address",
          "name": "from",
          "type": "address"
        },
        {
          "indexed": true,
          "internalType": "address",
          "name": "to",
          "type": "address"
        },
        {
          "indexed": false,
          "internalType": "uint256",
          "name": "value",
          "type": "uint256"
        }
      ],
      "name": "Transfer",
      "type": "event"
    },
    {
      "inputs": [
        {
          "internalType": "address[]",
          "name": "recipients",
          "type": "address[]"
        },
        {
          "internalType": "uint256[]",
          "name": "amounts",
          "type": "uint256[]"
        }
      ],
      "name": "airdrop",
      "outputs": [],
      "stateMutability": "nonpayable",
      "type": "function"
    },
    {
      "inputs": [
        {
          "internalType": "address",
          "name": "owner",
          "type": "address"
        },
        {
          "internalType": "address",
          "name": "spender",
          "type": "address"
        }
      ],
      "name": "allowance",
      "outputs": [
        {
          "internalType": "uint256",
          "name": "",
          "type": "uint256"
        }
      ],
      "stateMutability": "view",
      "type": "function"
    },
    {
      "inputs": [
        {
          "internalType": "address",
          "name": "spender",
          "type": "address"
        },
        {
          "internalType": "uint256",
          "name": "value",
          "type": "uint256"
        }
      ],
      "name": "approve",
      "outputs": [
        {
          "internalType": "bool",
          "name": "",
          "type": "bool"
        }
      ],
      "stateMutability": "nonpayable",
      "type": "function"
    },
    {
      "inputs": [
        {
          "internalType": "address",
          "name": "account",
          "type": "address"
        }
      ],
      "name": "balanceOf",
      "outputs": [
        {
          "internalType": "uint256",
          "name": "",
          "type": "uint256"
        }
      ],
      "stateMutability": "view",
      "type": "function"
    },
    {
      "inputs": [
        {
          "internalType": "address",
          "name": "from",
          "type": "address"
        },
        {
          "internalType": "uint256",
          "name": "amount",
          "type": "uint256"
        }
      ],
      "name": "burn",
      "outputs": [],
      "stateMutability": "nonpayable",
      "type": "function"
    },
    {
      "inputs": [],
      "name": "decimals",
      "outputs": [
        {
          "internalType": "uint8",
          "name": "",
          "type": "uint8"
        }
      ],
      "stateMutability": "view",
      "type": "function"
    },
    {
      "inputs": [
        {
          "internalType": "uint256",
          "name": "amount",
          "type": "uint256"
        }
      ],
      "name": "faucet",
      "outputs": [],
      "stateMutability": "nonpayable",
      "type": "function"
    },
    {
      "inputs": [
        {
          "internalType": "address",
          "name": "to",
          "type": "address"
        },
        {
          "internalType": "uint256",
          "name": "amount",
          "type": "uint256"
        }
      ],
      "name": "mint",
      "outputs": [],
      "stateMutability": "nonpayable",
      "type": "function"
    },
    {
      "inputs": [],
      "name": "name",
      "outputs": [
        {
          "internalType": "string",
          "name": "",
          "type": "string"
        }
      ],
      "stateMutability": "view",
      "type": "function"
    },
    {
      "inputs": [],
      "name": "owner",
      "outputs": [
        {
          "internalType": "address",
          "name": "",
          "type": "address"
        }
      ],
      "stateMutability": "view",
      "type": "function"
    },
    {
      "inputs": [],
      "name": "renounceOwnership",
      "outputs": [],
      "stateMutability": "nonpayable",
      "type": "function"
    },
    {
      "inputs": [],
      "name": "symbol",
      "outputs": [
        {
          "internalType": "string",
          "name": "",
          "type": "string"
        }
      ],
      "stateMutability": "view",
      "type": "function"
    },
    {
      "inputs": [],
      "name": "totalSupply",
      "outputs": [
        {
          "internalType": "uint256",
          "name": "",
          "type": "uint256"
        }
      ],
      "stateMutability": "view",
      "type": "function"
    },
    {
      "inputs": [
        {
          "internalType": "address",
          "name": "to",
          "type": "address"
        },
        {
          "internalType": "uint256",
          "name": "value",
          "type": "uint256"
        }
      ],
      "name": "transfer",
      "outputs": [
        {
          "internalType": "bool",
          "name": "",
          "type": "bool"
        }
      ],
      "stateMutability": "nonpayable",
      "type": "function"
    },
    {
      "inputs": [
        {
          "internalType": "address",
          "name": "from",
          "type": "address"
        },
        {
          "internalType": "address",
          "name": "to",
          "type": "address"
        },
        {
          "internalType": "uint256",
          "name": "value",
          "type": "uint256"
        }
      ],
      "name": "transferFrom",
      "outputs": [
        {
          "internalType": "bool",
          "name": "",
          "type": "bool"
        }
      ],
      "stateMutability": "nonpayable",
      "type": "function"
    },
    {
      "inputs": [
        {
          "internalType": "address",
          "name": "newOwner",
          "type": "address"
        }
      ],
      "name": "transferOwnership",
      "outputs": [],
      "stateMutability": "nonpayable",
      "type": "function"
    }
  ],
  "bytecode": "0x60806040523480156200001157600080fd5b50604051620012ff380380620012ff83398101604081905262000034916200034c565b338484600362000045838262000468565b50600462000054828262000468565b5050506001600160a01b0381166200008757604051631e4fbdf760e01b8152600060048201526024015b60405180910390fd5b6200009281620000c1565b506005805460ff60a01b1916600160a01b60ff851602179055620000b7338262000113565b505050506200055c565b600580546001600160a01b038381166001600160a01b0319831681179093556040519116919082907f8be0079c531659141344cd1fd0a4f28419497f9722a3daafe3b4186f6b6457e090600090a35050565b6001600160a01b0382166200013f5760405163ec442f0560e01b8152600060048201526024016200007e565b6200014d6000838362000151565b5050565b6001600160a01b0383166200018057806002600082825462000174919062000534565b90915550620001f49050565b6001600160a01b03831660009081526020819052604090205481811015620001d55760405163391434e360e21b81526001600160a01b038516600482015260248101829052604481018390526064016200007e565b6001600160a01b03841660009081526020819052604090209082900390555b6001600160a01b038216620002125760028054829003905562000231565b6001600160a01b03821660009081526020819052604090208054820190555b816001600160a01b0316836001600160a01b03167fddf252ad1be2c89b69c2b068fc378daa952ba7f163c4a11628f55a4df523b3ef836040516200027791815260200190565b60405180910390a3505050565b634e487b7160e01b600052604160045260246000fd5b600082601f830112620002ac57600080fd5b81516001600160401b0380821115620002c957620002c962000284565b604051601f8301601f19908116603f01168101908282118183101715620002f457620002f462000284565b81604052838152602092508660208588010111156200031257600080fd5b600091505b8382101562000336578582018301518183018401529082019062000317565b6000602085830101528094505050505092915050565b600080600080608085870312156200036357600080fd5b84516001600160401b03808211156200037b57600080fd5b62000389888389016200029a565b95506020870151915080821115620003a057600080fd5b50620003af878288016200029a565b935050604085015160ff81168114620003c757600080fd5b6060959095015193969295505050565b600181811c90821680620003ec57607f821691505b6020821081036200040d57634e487b7160e01b600052602260045260246000fd5b50919050565b601f82111562000463576000816000526020600020601f850160051c810160208610156200043e5750805b601f850160051c820191505b818110156200045f578281556001016200044a565b5050505b505050565b81516001600160401b0381111562000484576200048462000284565b6200049c81620004958454620003d7565b8462000413565b602080601f831160018114620004d45760008415620004bb5750858301515b600019600386901b1c1916600185901b1785556200045f565b600085815260208120601f198616915b828110156200050557888601518255948401946001909101908401620004e4565b5085821015620005245787850151600019600388901b60f8161c191681555b5050505050600190811b01905550565b808201808211156200055657634e487b7160e01b600052601160045260246000fd5b92915050565b610d93806200056c6000396000f3fe608060405234801561001057600080fd5b50600436106101005760003560e01c806370a08231116100975780639dc29fac116100665780639dc29fac14610219578063a9059cbb1461022c578063dd62ed3e1461023f578063f2fde38b1461027857600080fd5b806370a08231146101c5578063715018a6146101ee5780638da5cb5b146101f657806395d89b411461021157600080fd5b8063313ce567116100d3578063313ce5671461016b57806340c10f191461018a578063579158971461019f57806367243482146101b257600080fd5b806306fdde0314610105578063095ea7b31461012357806318160ddd1461014657806323b872dd14610158575b600080fd5b61010d61028b565b60405161011a9190610901565b60405180910390f35b61013661013136600461096c565b61031d565b604051901515815260200161011a565b6002545b60405190815260200161011a565b610136610166366004610996565b610337565b600554600160a01b900460ff1660405160ff909116815260200161011a565b61019d61019836600461096c565b61035b565b005b61019d6101ad3660046109d2565b610371565b61019d6101c0366004610ac5565b6103f6565b61014a6101d3366004610b85565b6001600160a01b031660009081526020819052604090205490565b61019d6104ae565b6005546040516001600160a01b03909116815260200161011a565b61010d6104c2565b61019d61022736600461096c565b6104d1565b61013661023a36600461096c565b6104e3565b61014a61024d366004610ba7565b6001600160a01b03918216600090815260016020908152604080832093909416825291909152205490565b61019d610286366004610b85565b6104f1565b60606003805461029a90610bda565b80601f01602080910402602001604051908101604052809291908181526020018280546102c690610bda565b80156103135780601f106102e857610100808354040283529160200191610313565b820191906000526020600020905b8154815290600101906020018083116102f657829003601f168201915b5050505050905090565b60003361032b81858561052c565b60019150505b92915050565b600033610345858285610539565b6103508585856105b8565b506001949350505050565b610363610617565b61036d8282610644565b5050565b60055461038990600160a01b900460ff16600a610d0e565b610395906103e8610d1d565b8111156103e95760405162461bcd60e51b815260206004820181905260248201527f5465737450595553443a20666175636574206c696d697420657863656564656460448201526064015b60405180910390fd5b6103f33382610644565b50565b6103fe610617565b80518251146104595760405162461bcd60e51b815260206004820152602160248201527f5465737450595553443a20617272617973206c656e677468206d69736d6174636044820152600d60fb1b60648201526084016103e0565b60005b82518110156104a9576104a183828151811061047a5761047a610d34565b602002602001015183838151811061049457610494610d34565b6020026020010151610644565b60010161045c565b505050565b6104b6610617565b6104c0600061067a565b565b60606004805461029a90610bda565b6104d9610617565b61036d82826106cc565b60003361032b8185856105b8565b6104f9610617565b6001600160a01b03811661052357604051631e4fbdf760e01b8152600060048201526024016103e0565b6103f38161067a565b6104a98383836001610702565b6001600160a01b038381166000908152600160209081526040808320938616835292905220546000198110156105b257818110156105a357604051637dc7a0d960e11b81526001600160a01b038416600482015260248101829052604481018390526064016103e0565b6105b284848484036000610702565b50505050565b6001600160a01b0383166105e257604051634b637e8f60e11b8152600060048201526024016103e0565b6001600160a01b03821661060c5760405163ec442f0560e01b8152600060048201526024016103e0565b6104a98383836107d7565b6005546001600160a01b031633146104c05760405163118cdaa760e01b81523360048201526024016103e0565b6001600160a01b03821661066e5760405163ec442f0560e01b8152600060048201526024016103e0565b61036d600083836107d7565b600580546001600160a01b038381166001600160a01b0319831681179093556040519116919082907f8be0079c531659141344cd1fd0a4f28419497f9722a3daafe3b4186f6b6457e090600090a35050565b6001600160a01b0382166106f657604051634b637e8f60e11b8152600060048201526024016103e0565b61036d826000836107d7565b6001600160a01b03841661072c5760405163e602df0560e01b8152600060048201526024016103e0565b6001600160a01b03831661075657604051634a1406b160e11b8152600060048201526024016103e0565b6001600160a01b03808516600090815260016020908152604080832093871683529290522082905580156105b257826001600160a01b0316846001600160a01b03167f8c5be1e5ebec7d5bd14f71427d1e84f3dd0314c0f7b2291e5b200ac8c7c3b925846040516107c991815260200190565b60405180910390a350505050565b6001600160a01b0383166108025780600260008282546107f79190610d4a565b909155506108749050565b6001600160a01b038316600090815260208190526040902054818110156108555760405163391434e360e21b81526001600160a01b038516600482015260248101829052604481018390526064016103e0565b6001600160a01b03841660009081526020819052604090209082900390555b6001600160a01b038216610890576002805482900390556108af565b6001600160a01b03821660009081526020819052604090208054820190555b816001600160a01b0316836001600160a01b03167fddf252ad1be2c89b69c2b068fc378daa952ba7f163c4a11628f55a4df523b3ef836040516108f491815260200190565b60405180910390a3505050565b60006020808352835180602085015260005b8181101561092f57858101830151858201604001528201610913565b506000604082860101526040601f19601f8301168501019250505092915050565b80356001600160a01b038116811461096757600080fd5b919050565b6000806040838503121561097f57600080fd5b61098883610950565b946020939093013593505050565b6000806000606084860312156109ab57600080fd5b6109b484610950565b92506109c260208501610950565b9150604084013590509250925092565b6000602082840312156109e457600080fd5b5035919050565b634e487b7160e01b600052604160045260246000fd5b604051601f8201601f1916810167ffffffffffffffff81118282101715610a2a57610a2a6109eb565b604052919050565b600067ffffffffffffffff821115610a4c57610a4c6109eb565b5060051b60200190565b600082601f830112610a6757600080fd5b81356020610a7c610a7783610a32565b610a01565b8083825260208201915060208460051b870101935086841115610a9e57600080fd5b602086015b84811015610aba5780358352918301918301610aa3565b509695505050505050565b60008060408385031215610ad857600080fd5b823567ffffffffffffffff80821115610af057600080fd5b818501915085601f830112610b0457600080fd5b81356020610b14610a7783610a32565b82815260059290921b84018101918181019089841115610b3357600080fd5b948201945b83861015610b5857610b4986610950565b82529482019490820190610b38565b96505086013592505080821115610b6e57600080fd5b50610b7b85828601610a56565b9150509250929050565b600060208284031215610b9757600080fd5b610ba082610950565b9392505050565b60008060408385031215610bba57600080fd5b610bc383610950565b9150610bd160208401610950565b90509250929050565b600181811c90821680610bee57607f821691505b602082108103610c0e57634e487b7160e01b600052602260045260246000fd5b50919050565b634e487b7160e01b600052601160045260246000fd5b600181815b80851115610c65578160001904821115610c4b57610c4b610c14565b80851615610c5857918102915b93841c9390800290610c2f565b509250929050565b600082610c7c57506001610331565b81610c8957506000610331565b8160018114610c9f5760028114610ca957610cc5565b6001915050610331565b60ff841115610cba57610cba610c14565b50506001821b610331565b5060208310610133831016604e8410600b8410161715610ce8575081810a610331565b610cf28383610c2a565b8060001904821115610d0657610d06610c14565b029392505050565b6000610ba060ff841683610c6d565b808202811582820484141761033157610331610c14565b634e487b7160e01b600052603260045260246000fd5b8082018082111561033157610331610c1456fea2646970667358221220a003d14451e63afbe04f4369412bdb2c5f9b83ddc046c1144e7297dad2ce61bd64736f6c63430008180033",
  "linkReferences": {},
  "deployedLinkReferences": {}
}