{
  "_format": "hh-sol-artifact-1",
  "contractName": "MusicNFTV5",
  "sourceName": "contracts/MusicNFTV5.sol",
  "abi": [
    {
      "inputs": [
        {
          "internalType": "string",
          "name": "name",
          "type": "string"
        },
        {
          "internalType": "string",
          "name": "symbol",
          "type": "string"
        },
        {
          "internalType": "string",
          "name": "baseURI",
          "type": "string"
        },
        {
          "internalType": "address",
          "name": "_pyusdAddress",
          "type": "address"
        },
        {
          "internalType": "uint256",
          "name": "_mintPrice",
          "type": "uint256"
        }
      ],
      "stateMutability": "nonpayable",
      "type": "constructor"
    },
    {
      "inputs": [
        {
          "internalType": "address",
          "name": "sender",
          "type": "address"
        },
        {
          "internalType": "uint256",
          "name": "tokenId",
          "type": "uint256"
        },
        {
          "internalType": "address",
          "name": "owner",
          "type": "address"
        }
      ],
      "name": "ERC721IncorrectOwner",
      "type": "error"
    },
    {
      "inputs": [
        {
          "internalType": "address",
          "name": "operator",
          "type": "address"
        },
        {
          "internalType": "uint256",
          "name": "tokenId",
          "type": "uint256"
        }
      ],
      "name": "ERC721InsufficientApproval",
      "type": "error"
    },
    {
      "inputs": [
        {
          "internalType": "address",
          "name": "approver",
          "type": "address"
        }
      ],
      "name": "ERC721InvalidApprover",
      "type": "error"
    },
    {
      "inputs": [
        {
          "internalType": "address",
          "name": "operator",
          "type": "address"
        }
      ],
      "name": "ERC721InvalidOperator",
      "type": "error"
    },
    {
      "inputs": [
        {
          "internalType": "address",
          "name": "owner",
          "type": "address"
        }
      ],
      "name": "ERC721InvalidOwner",
      "type": "error"
    },
    {
      "inputs": [
        {
          "internalType": "address",
          "name": "receiver",
          "type": "address"
        }
      ],
      "name": "ERC721InvalidReceiver",
      "type": "error"
    },
    {
      "inputs": [
        {
          "internalType": "address",
          "name": "sender",
          "type": "address"
        }
      ],
      "name": "ERC721InvalidSender",
      "type": "error"
    },
    {
      "inputs": [
        {
          "internalType": "uint256",
          "name": "tokenId",
          "type": "uint256"
        }
      ],
      "name": "ERC721NonexistentToken",
      "type": "error"
    },
    {
      "inputs": [
        {
          "internalType": "address",
          "name": "owner",
          "type": "address"
        }
      ],
      "name": "OwnableInvalidOwner",
      "type": "error"
    },
    {
      "inputs": [
        {
          "internalType": "address",
          "name": "account",
          "type": "address"
        }
      ],
      "name": "OwnableUnauthorizedAccount",
      "type": "error"
    },
    {
      "anonymous": false,
      "inputs": [
        {
          "indexed": true,
          "internalType": "address",
          "name": "owner",
          "type": "address"
        },
        {
          "indexed": true,
          "internalType": "address",
          "name": "approved",
          "type": "address"
        },
        {
          "indexed": true,
          "internalType": "uint256",
          "name": "tokenId",
          "type": "uint256"
        }
      ],
      "name": "Approval",
      "type": "event"
    },
    {
      "anonymous": false,
      "inputs": [
        {
          "indexed": true,
          "internalType": "address",
          "name": "owner",
          "type": "address"
        },
        {
          "indexed": true,
          "internalType": "address",
          "name": "operator",
          "type": "address"
        },
        {
          "indexed": false,
          "internalType": "bool",
          "name": "approved",
          "type": "bool"
        }
      ],
      "name": "ApprovalForAll",
      "type": "event"
    },
    {
      "anonymous": false,
      "inputs": [
        {
          "indexed": false,
          "internalType": "uint256",
          "name": "newPrice",
          "type": "uint256"
        }
      ],
      "name": "MintPriceUpdated",
      "type": "event"
    },
    {
      "anonymous": false,
      "inputs": [
        {
          "indexed": true,
          "internalType": "address",
          "name": "previousOwner",
          "type": "address"
        },
        {
          "indexed": true,
          "internalType": "address",
          "name": "newOwner",
          "type": "address"
        }
      ],
      "name": "OwnershipTransferred",
      "type": "event"
    },
    {
      "anonymous": false,
      "inputs": [
        {
          "indexed": true,
          "internalType": "uint256",
          "name": "tokenId",
          "type": "uint256"
        },
        {
          "indexed": true,
          "internalType": "address",
          "name": "to",
          "type": "address"
        },
        {
          "indexed": false,
          "internalType": "string",
          "name": "tokenURI",
          "type": "string"
        },
        {
          "indexed": false,
          "internalType": "uint256",
          "name": "pyusdPrice",
          "type": "uint256"
        }
      ],
      "name": "TokenMinted",
      "type": "event"
    },
    {
      "anonymous": false,
      "inputs": [
        {
          "indexed": true,
          "internalType": "uint256",
          "name": "tokenId",
          "type": "uint256"
        },
        {
          "indexed": false,
          "internalType": "uint256",
          "name": "price",
          "type": "uint256"
        }
      ],
      "name": "TokenPriceSet",
      "type": "event"
    },
    {
      "anonymous": false,
      "inputs": [
        {
          "indexed": true,
          "internalType": "uint256",
          "name": "tokenId",
          "type": "uint256"
        },
        {
          "indexed": true,
          "internalType": "address",
          "name": "buyer",
          "type": "address"
        },
        {
          "indexed": false,
          "internalType": "uint256",
          "name": "price",
          "type": "uint256"
        }
      ],
      "name": "TokenPurchased",
      "type": "event"
    },
    {
      "anonymous": false,
      "inputs": [
        {
          "indexed": true,
          "internalType": "address",
          "name": "from",
          "type": "address"
        },
        {
          "indexed": true,
          "internalType": "address",
          "name": "to",
          "type": "address"
        },
        {
          "indexed": true,
          "internalType": "uint256",
          "name": "tokenId",
          "type": "uint256"
        }
      ],
      "name": "Transfer",
      "type": "event"
    },
    {
      "inputs": [
        {
          "internalType": "address",
          "name": "to",
          "type": "address"
        },
        {
          "internalType": "uint256",
          "name": "tokenId",
          "type": "uint256"
        }
      ],
      "name": "approve",
      "outputs": [],
      "stateMutability": "nonpayable",
      "type": "function"
    },
    {
      "inputs": [
        {
          "internalType": "address",
          "name": "owner",
          "type": "address"
        }
      ],
      "name": "balanceOf",
      "outputs": [
        {
          "internalType": "uint256",
          "name": "",
          "type": "uint256"
        }
      ],
      "stateMutability": "view",
      "type": "function"
    },
    {
      "inputs": [
        {
          "internalType": "uint256",
          "name": "tokenId",
          "type": "uint256"
        }
      ],
      "name": "buyNFT",
      "outputs": [],
      "stateMutability": "payable",
      "type": "function"
    },
    {
      "inputs": [
        {
          "internalType": "uint256",
          "name": "tokenId",
          "type": "uint256"
        }
      ],
      "name": "getApproved",
      "outputs": [
        {
          "internalType": "address",
          "name": "",
          "type": "address"
        }
      ],
      "stateMutability": "view",
      "type": "function"
    },
    {
      "inputs": [
        {
          "internalType": "uint256",
          "name": "tokenId",
          "type": "uint256"
        }
      ],
      "name": "getTokenPrice",
      "outputs": [
        {
          "internalType": "uint256",
          "name": "",
          "type": "uint256"
        }
      ],
      "stateMutability": "view",
      "type": "function"
    },
    {
      "inputs": [
        {
          "internalType": "address",
          "name": "owner",
          "type": "address"
        },
        {
          "internalType": "address",
          "name": "operator",
          "type": "address"
        }
      ],
      "name": "isApprovedForAll",
      "outputs": [
        {
          "internalType": "bool",
          "name": "",
          "type": "bool"
        }
      ],
      "stateMutability": "view",
      "type": "function"
    },
    {
      "inputs": [
        {
          "internalType": "uint256",
          "name": "tokenId",
          "type": "uint256"
        }
      ],
      "name": "isForSale",
      "outputs": [
        {
          "internalType": "bool",
          "name": "",
          "type": "bool"
        }
      ],
      "stateMutability": "view",
      "type": "function"
    },
    {
      "inputs": [
        {
          "internalType": "address",
          "name": "to",
          "type": "address"
        },
        {
          "internalType": "string",
          "name": "customTokenURI",
          "type": "string"
        }
      ],
      "name": "mint",
      "outputs": [
        {
          "internalType": "uint256",
          "name": "",
          "type": "uint256"
        }
      ],
      "stateMutability": "nonpayable",
      "type": "function"
    },
    {
      "inputs": [],
      "name": "mintPrice",
      "outputs": [
        {
          "internalType": "uint256",
          "name": "",
          "type": "uint256"
        }
      ],
      "stateMutability": "view",
      "type": "function"
    },
    {
      "inputs": [],
      "name": "name",
      "outputs": [
        {
          "internalType": "string",
          "name": "",
          "type": "string"
        }
      ],
      "stateMutability": "view",
      "type": "function"
    },
    {
      "inputs": [],
      "name": "owner",
      "outputs": [
        {
          "internalType": "address",
          "name": "",
          "type": "address"
        }
      ],
      "stateMutability": "view",
      "type": "function"
    },
    {
      "inputs": [
        {
          "internalType": "uint256",
          "name": "tokenId",
          "type": "uint256"
        }
      ],
      "name": "ownerOf",
      "outputs": [
        {
          "internalType": "address",
          "name": "",
          "type": "address"
        }
      ],
      "stateMutability": "view",
      "type": "function"
    },
    {
      "inputs": [],
      "name": "pyusdAddress",
      "outputs": [
        {
          "internalType": "address",
          "name": "",
          "type": "address"
        }
      ],
      "stateMutability": "view",
      "type": "function"
    },
    {
      "inputs": [],
      "name": "renounceOwnership",
      "outputs": [],
      "stateMutability": "nonpayable",
      "type": "function"
    },
    {
      "inputs": [
        {
          "internalType": "address",
          "name": "from",
          "type": "address"
        },
        {
          "internalType": "address",
          "name": "to",
          "type": "address"
        },
        {
          "internalType": "uint256",
          "name": "tokenId",
          "type": "uint256"
        }
      ],
      "name": "safeTransferFrom",
      "outputs": [],
      "stateMutability": "nonpayable",
      "type": "function"
    },
    {
      "inputs": [
        {
          "internalType": "address",
          "name": "from",
          "type": "address"
        },
        {
          "internalType": "address",
          "name": "to",
          "type": "address"
        },
        {
          "internalType": "uint256",
          "name": "tokenId",
          "type": "uint256"
        },
        {
          "internalType": "bytes",
          "name": "data",
          "type": "bytes"
        }
      ],
      "name": "safeTransferFrom",
      "outputs": [],
      "stateMutability": "nonpayable",
      "type": "function"
    },
    {
      "inputs": [
        {
          "internalType": "address",
          "name": "operator",
          "type": "address"
        },
        {
          "internalType": "bool",
          "name": "approved",
          "type": "bool"
        }
      ],
      "name": "setApprovalForAll",
      "outputs": [],
      "stateMutability": "nonpayable",
      "type": "function"
    },
    {
      "inputs": [
        {
          "internalType": "uint256",
          "name": "_newPrice",
          "type": "uint256"
        }
      ],
      "name": "setMintPrice",
      "outputs": [],
      "stateMutability": "nonpayable",
      "type": "function"
    },
    {
      "inputs": [
        {
          "internalType": "uint256",
          "name": "tokenId",
          "type": "uint256"
        },
        {
          "internalType": "uint256",
          "name": "price",
          "type": "uint256"
        }
      ],
      "name": "setTokenPrice",
      "outputs": [],
      "stateMutability": "nonpayable",
      "type": "function"
    },
    {
      "inputs": [
        {
          "internalType": "bytes4",
          "name": "interfaceId",
          "type": "bytes4"
        }
      ],
      "name": "supportsInterface",
      "outputs": [
        {
          "internalType": "bool",
          "name": "",
          "type": "bool"
        }
      ],
      "stateMutability": "view",
      "type": "function"
    },
    {
      "inputs": [],
      "name": "symbol",
      "outputs": [
        {
          "internalType": "string",
          "name": "",
          "type": "string"
        }
      ],
      "stateMutability": "view",
      "type": "function"
    },
    {
      "inputs": [
        {
          "internalType": "uint256",
          "name": "tokenId",
          "type": "uint256"
        }
      ],
      "name": "tokenURI",
      "outputs": [
        {
          "internalType": "string",
          "name": "",
          "type": "string"
        }
      ],
      "stateMutability": "view",
      "type": "function"
    },
    {
      "inputs": [],
      "name": "totalSupply",
      "outputs": [
        {
          "internalType": "uint256",
          "name": "",
          "type": "uint256"
        }
      ],
      "stateMutability": "view",
      "type": "function"
    },
    {
      "inputs": [
        {
          "internalType": "address",
          "name": "from",
          "type": "address"
        },
        {
          "internalType": "address",
          "name": "to",
          "type": "address"
        },
        {
          "internalType": "uint256",
          "name": "tokenId",
          "type": "uint256"
        }
      ],
      "name": "transferFrom",
      "outputs": [],
      "stateMutability": "nonpayable",
      "type": "function"
    },
    {
      "inputs": [
        {
          "internalType": "address",
          "name": "newOwner",
          "type": "address"
        }
      ],
      "name": "transferOwnership",
      "outputs": [],
      "stateMutability": "nonpayable",
      "type": "function"
    },
    {
      "inputs": [],
      "name": "withdraw",
      "outputs": [],
      "stateMutability": "nonpayable",
      "type": "function"
    }
  ],
  "bytecode": "0x60806040523480156200001157600080fd5b5060405162002075380380620020758339810160408190526200003491620001ee565b33858560006200004583826200033e565b5060016200005482826200033e565b5050506001600160a01b0381166200008657604051631e4fbdf760e01b81526000600482015260240160405180910390fd5b6200009181620000d4565b506008620000a084826200033e565b506001600755600980546001600160a01b0319166001600160a01b039390931692909217909155600a55506200040a915050565b600680546001600160a01b038381166001600160a01b0319831681179093556040519116919082907f8be0079c531659141344cd1fd0a4f28419497f9722a3daafe3b4186f6b6457e090600090a35050565b634e487b7160e01b600052604160045260246000fd5b600082601f8301126200014e57600080fd5b81516001600160401b03808211156200016b576200016b62000126565b604051601f8301601f19908116603f0116810190828211818310171562000196576200019662000126565b8160405283815260209250866020858801011115620001b457600080fd5b600091505b83821015620001d85785820183015181830184015290820190620001b9565b6000602085830101528094505050505092915050565b600080600080600060a086880312156200020757600080fd5b85516001600160401b03808211156200021f57600080fd5b6200022d89838a016200013c565b965060208801519150808211156200024457600080fd5b6200025289838a016200013c565b955060408801519150808211156200026957600080fd5b5062000278888289016200013c565b606088015190945090506001600160a01b03811681146200029857600080fd5b80925050608086015190509295509295909350565b600181811c90821680620002c257607f821691505b602082108103620002e357634e487b7160e01b600052602260045260246000fd5b50919050565b601f82111562000339576000816000526020600020601f850160051c81016020861015620003145750805b601f850160051c820191505b81811015620003355782815560010162000320565b5050505b505050565b81516001600160401b038111156200035a576200035a62000126565b62000372816200036b8454620002ad565b84620002e9565b602080601f831160018114620003aa5760008415620003915750858301515b600019600386901b1c1916600185901b17855562000335565b600085815260208120601f198616915b82811015620003db57888601518255948401946001909101908401620003ba565b5085821015620003fa5787850151600019600388901b60f8161c191681555b5050505050600190811b01905550565b611c5b806200041a6000396000f3fe6080604052600436106101815760003560e01c80638546d002116100d1578063c457fb371161008a578063e985e9c511610064578063e985e9c51461045d578063eb685c471461047d578063f2fde38b1461049d578063f4a0a528146104bd57600080fd5b8063c457fb37146103f0578063c87b56dd1461041d578063d0def5211461043d57600080fd5b80638546d0021461032d5780638da5cb5b1461035d57806395d89b411461037b578063a22cb46514610390578063b88d4fde146103b0578063c4391437146103d057600080fd5b80633ccfd60b1161013e5780636352211e116101185780636352211e146102c25780636817c76c146102e257806370a08231146102f8578063715018a61461031857600080fd5b80633ccfd60b1461027a57806342842e0e1461028f57806351ed8288146102af57600080fd5b806301ffc9a71461018657806306fdde03146101bb578063081812fc146101dd578063095ea7b31461021557806318160ddd1461023757806323b872dd1461025a575b600080fd5b34801561019257600080fd5b506101a66101a13660046115ff565b6104dd565b60405190151581526020015b60405180910390f35b3480156101c757600080fd5b506101d061052f565b6040516101b29190611673565b3480156101e957600080fd5b506101fd6101f8366004611686565b6105c1565b6040516001600160a01b0390911681526020016101b2565b34801561022157600080fd5b506102356102303660046116bb565b6105ea565b005b34801561024357600080fd5b5061024c6105f9565b6040519081526020016101b2565b34801561026657600080fd5b506102356102753660046116e5565b61060f565b34801561028657600080fd5b5061023561069f565b34801561029b57600080fd5b506102356102aa3660046116e5565b61072f565b6102356102bd366004611686565b61074f565b3480156102ce57600080fd5b506101fd6102dd366004611686565b610976565b3480156102ee57600080fd5b5061024c600a5481565b34801561030457600080fd5b5061024c610313366004611721565b610981565b34801561032457600080fd5b506102356109c9565b34801561033957600080fd5b506101a6610348366004611686565b6000908152600c602052604090205460ff1690565b34801561036957600080fd5b506006546001600160a01b03166101fd565b34801561038757600080fd5b506101d06109dd565b34801561039c57600080fd5b506102356103ab36600461173c565b6109ec565b3480156103bc57600080fd5b506102356103cb366004611804565b6109f7565b3480156103dc57600080fd5b506009546101fd906001600160a01b031681565b3480156103fc57600080fd5b5061024c61040b366004611686565b6000908152600b602052604090205490565b34801561042957600080fd5b506101d0610438366004611686565b610a0f565b34801561044957600080fd5b5061024c610458366004611880565b610b60565b34801561046957600080fd5b506101a66104783660046118e2565b610c3b565b34801561048957600080fd5b50610235610498366004611915565b610c69565b3480156104a957600080fd5b506102356104b8366004611721565b610d26565b3480156104c957600080fd5b506102356104d8366004611686565b610d64565b60006001600160e01b031982166380ac58cd60e01b148061050e57506001600160e01b03198216635b5e139f60e01b145b8061052957506301ffc9a760e01b6001600160e01b03198316145b92915050565b60606000805461053e90611937565b80601f016020809104026020016040519081016040528092919081815260200182805461056a90611937565b80156105b75780601f1061058c576101008083540402835291602001916105b7565b820191906000526020600020905b81548152906001019060200180831161059a57829003601f168201915b5050505050905090565b60006105cc82610da7565b506000828152600460205260409020546001600160a01b0316610529565b6105f5828233610ddf565b5050565b6000600160075461060a9190611987565b905090565b6001600160a01b03821661063e57604051633250574960e11b8152600060048201526024015b60405180910390fd5b600061064b838333610dec565b9050836001600160a01b0316816001600160a01b031614610699576040516364283d7b60e01b81526001600160a01b0380861660048301526024820184905282166044820152606401610635565b50505050565b6106a7610ee0565b47806106f55760405162461bcd60e51b815260206004820152601e60248201527f4d757369634e46543a206e6f2066756e647320746f20776974686472617700006044820152606401610635565b6006546040516001600160a01b039091169082156108fc029083906000818181858888f193505050501580156105f5573d6000803e3d6000fd5b61074a838383604051806020016040528060008152506109f7565b505050565b600061075a82610f0d565b6001600160a01b0316036107b05760405162461bcd60e51b815260206004820152601e60248201527f4d757369634e46543a20746f6b656e20646f6573206e6f7420657869737400006044820152606401610635565b6000818152600c602052604090205460ff1661080e5760405162461bcd60e51b815260206004820152601f60248201527f4d757369634e46543a20746f6b656e206973206e6f7420666f722073616c65006044820152606401610635565b6000818152600b602052604090205434101561086c5760405162461bcd60e51b815260206004820152601e60248201527f4d757369634e46543a20696e73756666696369656e74207061796d656e7400006044820152606401610635565b600061087782610f0d565b9050336001600160a01b038216036108dd5760405162461bcd60e51b815260206004820152602360248201527f4d757369634e46543a2063616e6e6f742062757920796f7572206f776e20746f60448201526235b2b760e91b6064820152608401610635565b6108e8813384610f28565b6040516001600160a01b038216903480156108fc02916000818181858888f1935050505015801561091d573d6000803e3d6000fd5b506000828152600c602052604090819020805460ff1916905551339083907f1cb6dd09e77cf64c9d88c8e0cf8555ebff062045f2068f22efcbc60905730e719061096a9034815260200190565b60405180910390a35050565b600061052982610da7565b60006001600160a01b0382166109ad576040516322718ad960e21b815260006004820152602401610635565b506001600160a01b031660009081526003602052604090205490565b6109d1610ee0565b6109db6000610fd8565b565b60606001805461053e90611937565b6105f533838361102a565b610a0284848461060f565b61069933858585856110c9565b60606000610a1c83610f0d565b6001600160a01b031603610a845760405162461bcd60e51b815260206004820152602960248201527f4d757369634e46543a2055524920717565727920666f72206e6f6e657869737460448201526832b73a103a37b5b2b760b91b6064820152608401610635565b6000828152600d602052604081208054610a9d90611937565b80601f0160208091040260200160405190810160405280929190818152602001828054610ac990611937565b8015610b165780601f10610aeb57610100808354040283529160200191610b16565b820191906000526020600020905b815481529060010190602001808311610af957829003601f168201915b50505050509050600081511115610b2d5792915050565b6008610b38846111f4565b604051602001610b4992919061199a565b604051602081830303815290604052915050919050565b60006001600160a01b038316610bc35760405162461bcd60e51b815260206004820152602260248201527f4d757369634e46543a206d696e7420746f20746865207a65726f206164647265604482015261737360f01b6064820152608401610635565b600780549081906000610bd583611a21565b9190505550610be484826112fd565b610bee8184611317565b836001600160a01b0316817fe768813546e23b724434f7fec2919cc3b20a39442602c602009edb1998dd551885600a54604051610c2c929190611a3a565b60405180910390a39392505050565b6001600160a01b03918216600090815260056020908152604080832093909416825291909152205460ff1690565b33610c7383610f0d565b6001600160a01b031614610cc95760405162461bcd60e51b815260206004820152601760248201527f4d757369634e46543a206e6f7420746865206f776e65720000000000000000006044820152606401610635565b6000828152600b60209081526040808320849055600c825291829020805460ff19166001179055905182815283917f2d11d55576c2ebb7af83c94e875768af4c6fd8bea7a22b395b14a857c361505b910160405180910390a25050565b610d2e610ee0565b6001600160a01b038116610d5857604051631e4fbdf760e01b815260006004820152602401610635565b610d6181610fd8565b50565b610d6c610ee0565b600a8190556040518181527f525b762709cc2a983aec5ccdfd807a061f993c91090b5bcd7da92ca254976aaa9060200160405180910390a150565b600080610db383610f0d565b90506001600160a01b03811661052957604051637e27328960e01b815260048101849052602401610635565b61074a838383600161139f565b600080610df884610f0d565b90506001600160a01b03831615610e1457610e148184866114a5565b6001600160a01b03811615610e5257610e3160008560008061139f565b6001600160a01b038116600090815260036020526040902080546000190190555b6001600160a01b03851615610e81576001600160a01b0385166000908152600360205260409020805460010190555b60008481526002602052604080822080546001600160a01b0319166001600160a01b0389811691821790925591518793918516917fddf252ad1be2c89b69c2b068fc378daa952ba7f163c4a11628f55a4df523b3ef91a4949350505050565b6006546001600160a01b031633146109db5760405163118cdaa760e01b8152336004820152602401610635565b6000908152600260205260409020546001600160a01b031690565b6001600160a01b038216610f5257604051633250574960e11b815260006004820152602401610635565b6000610f6083836000610dec565b90506001600160a01b038116610f8c57604051637e27328960e01b815260048101839052602401610635565b836001600160a01b0316816001600160a01b031614610699576040516364283d7b60e01b81526001600160a01b0380861660048301526024820184905282166044820152606401610635565b600680546001600160a01b038381166001600160a01b0319831681179093556040519116919082907f8be0079c531659141344cd1fd0a4f28419497f9722a3daafe3b4186f6b6457e090600090a35050565b6001600160a01b03821661105c57604051630b61174360e31b81526001600160a01b0383166004820152602401610635565b6001600160a01b03838116600081815260056020908152604080832094871680845294825291829020805460ff191686151590811790915591519182527f17307eab39ab6107e8899845ad3d59bd9653f200f220920489ca2b5937696c31910160405180910390a3505050565b6001600160a01b0383163b156111ed57604051630a85bd0160e11b81526001600160a01b0384169063150b7a029061110b908890889087908790600401611a5c565b6020604051808303816000875af1925050508015611146575060408051601f3d908101601f1916820190925261114391810190611a99565b60015b6111af573d808015611174576040519150601f19603f3d011682016040523d82523d6000602084013e611179565b606091505b5080516000036111a757604051633250574960e11b81526001600160a01b0385166004820152602401610635565b805160208201fd5b6001600160e01b03198116630a85bd0160e11b146111eb57604051633250574960e11b81526001600160a01b0385166004820152602401610635565b505b5050505050565b60608160000361121b5750506040805180820190915260018152600360fc1b602082015290565b8160005b8115611245578061122f81611a21565b915061123e9050600a83611acc565b915061121f565b60008167ffffffffffffffff81111561126057611260611778565b6040519080825280601f01601f19166020018201604052801561128a576020820181803683370190505b5090505b84156112f55761129f600183611987565b91506112ac600a86611ae0565b6112b7906030611af4565b60f81b8183815181106112cc576112cc611b07565b60200101906001600160f81b031916908160001a9053506112ee600a86611acc565b945061128e565b949350505050565b6105f5828260405180602001604052806000815250611509565b600061132283610f0d565b6001600160a01b0316036113875760405162461bcd60e51b815260206004820152602660248201527f4d757369634e46543a2055524920736574206f66206e6f6e6578697374656e74604482015265103a37b5b2b760d11b6064820152608401610635565b6000828152600d6020526040902061074a8282611b65565b80806113b357506001600160a01b03821615155b156114755760006113c384610da7565b90506001600160a01b038316158015906113ef5750826001600160a01b0316816001600160a01b031614155b801561140257506114008184610c3b565b155b1561142b5760405163a9fbf51f60e01b81526001600160a01b0384166004820152602401610635565b81156114735783856001600160a01b0316826001600160a01b03167f8c5be1e5ebec7d5bd14f71427d1e84f3dd0314c0f7b2291e5b200ac8c7c3b92560405160405180910390a45b505b5050600090815260046020526040902080546001600160a01b0319166001600160a01b0392909216919091179055565b6114b0838383611521565b61074a576001600160a01b0383166114de57604051637e27328960e01b815260048101829052602401610635565b60405163177e802f60e01b81526001600160a01b038316600482015260248101829052604401610635565b6115138383611584565b61074a3360008585856110c9565b60006001600160a01b038316158015906112f55750826001600160a01b0316846001600160a01b0316148061155b575061155b8484610c3b565b806112f55750506000908152600460205260409020546001600160a01b03908116911614919050565b6001600160a01b0382166115ae57604051633250574960e11b815260006004820152602401610635565b60006115bc83836000610dec565b90506001600160a01b0381161561074a576040516339e3563760e11b815260006004820152602401610635565b6001600160e01b031981168114610d6157600080fd5b60006020828403121561161157600080fd5b813561161c816115e9565b9392505050565b60005b8381101561163e578181015183820152602001611626565b50506000910152565b6000815180845261165f816020860160208601611623565b601f01601f19169290920160200192915050565b60208152600061161c6020830184611647565b60006020828403121561169857600080fd5b5035919050565b80356001600160a01b03811681146116b657600080fd5b919050565b600080604083850312156116ce57600080fd5b6116d78361169f565b946020939093013593505050565b6000806000606084860312156116fa57600080fd5b6117038461169f565b92506117116020850161169f565b9150604084013590509250925092565b60006020828403121561173357600080fd5b61161c8261169f565b6000806040838503121561174f57600080fd5b6117588361169f565b91506020830135801515811461176d57600080fd5b809150509250929050565b634e487b7160e01b600052604160045260246000fd5b600067ffffffffffffffff808411156117a9576117a9611778565b604051601f8501601f19908116603f011681019082821181831017156117d1576117d1611778565b816040528093508581528686860111156117ea57600080fd5b858560208301376000602087830101525050509392505050565b6000806000806080858703121561181a57600080fd5b6118238561169f565b93506118316020860161169f565b925060408501359150606085013567ffffffffffffffff81111561185457600080fd5b8501601f8101871361186557600080fd5b6118748782356020840161178e565b91505092959194509250565b6000806040838503121561189357600080fd5b61189c8361169f565b9150602083013567ffffffffffffffff8111156118b857600080fd5b8301601f810185136118c957600080fd5b6118d88582356020840161178e565b9150509250929050565b600080604083850312156118f557600080fd5b6118fe8361169f565b915061190c6020840161169f565b90509250929050565b6000806040838503121561192857600080fd5b50508035926020909101359150565b600181811c9082168061194b57607f821691505b60208210810361196b57634e487b7160e01b600052602260045260246000fd5b50919050565b634e487b7160e01b600052601160045260246000fd5b8181038181111561052957610529611971565b60008084546119a881611937565b600182811680156119c057600181146119d557611a04565b60ff1984168752821515830287019450611a04565b8860005260208060002060005b858110156119fb5781548a8201529084019082016119e2565b50505082870194505b505050508351611a18818360208801611623565b01949350505050565b600060018201611a3357611a33611971565b5060010190565b604081526000611a4d6040830185611647565b90508260208301529392505050565b6001600160a01b0385811682528416602082015260408101839052608060608201819052600090611a8f90830184611647565b9695505050505050565b600060208284031215611aab57600080fd5b815161161c816115e9565b634e487b7160e01b600052601260045260246000fd5b600082611adb57611adb611ab6565b500490565b600082611aef57611aef611ab6565b500690565b8082018082111561052957610529611971565b634e487b7160e01b600052603260045260246000fd5b601f82111561074a576000816000526020600020601f850160051c81016020861015611b465750805b601f850160051c820191505b818110156111eb57828155600101611b52565b815167ffffffffffffffff811115611b7f57611b7f611778565b611b9381611b8d8454611937565b84611b1d565b602080601f831160018114611bc85760008415611bb05750858301515b600019600386901b1c1916600185901b1785556111eb565b600085815260208120601f198616915b82811015611bf757888601518255948401946001909101908401611bd8565b5085821015611c155787850151600019600388901b60f8161c191681555b5050505050600190811b0190555056fea26469706673582212206a72b853c3e9c58d13103fe37a4c3964dddb268a950d764c7ba60ef13c29260664736f6c63430008180033",
  "linkReferences": {},
  "deployedLinkReferences": {}
}