{
  "_format": "hh-sol-artifact-1",
  "contractName": "MusicNFTV2",
  "sourceName": "contracts/MusicNFTV2.sol",
  "abi": [
    {
      "inputs": [
        {
          "internalType": "string",
          "name": "name",
          "type": "string"
        },
        {
          "internalType": "string",
          "name": "symbol",
          "type": "string"
        },
        {
          "internalType": "string",
          "name": "baseTokenURI",
          "type": "string"
        },
        {
          "internalType": "address",
          "name": "_pyusd",
          "type": "address"
        },
        {
          "internalType": "uint256",
          "name": "_mintPrice",
          "type": "uint256"
        }
      ],
      "stateMutability": "nonpayable",
      "type": "constructor"
    },
    {
      "inputs": [
        {
          "internalType": "address",
          "name": "sender",
          "type": "address"
        },
        {
          "internalType": "uint256",
          "name": "tokenId",
          "type": "uint256"
        },
        {
          "internalType": "address",
          "name": "owner",
          "type": "address"
        }
      ],
      "name": "ERC721IncorrectOwner",
      "type": "error"
    },
    {
      "inputs": [
        {
          "internalType": "address",
          "name": "operator",
          "type": "address"
        },
        {
          "internalType": "uint256",
          "name": "tokenId",
          "type": "uint256"
        }
      ],
      "name": "ERC721InsufficientApproval",
      "type": "error"
    },
    {
      "inputs": [
        {
          "internalType": "address",
          "name": "approver",
          "type": "address"
        }
      ],
      "name": "ERC721InvalidApprover",
      "type": "error"
    },
    {
      "inputs": [
        {
          "internalType": "address",
          "name": "operator",
          "type": "address"
        }
      ],
      "name": "ERC721InvalidOperator",
      "type": "error"
    },
    {
      "inputs": [
        {
          "internalType": "address",
          "name": "owner",
          "type": "address"
        }
      ],
      "name": "ERC721InvalidOwner",
      "type": "error"
    },
    {
      "inputs": [
        {
          "internalType": "address",
          "name": "receiver",
          "type": "address"
        }
      ],
      "name": "ERC721InvalidReceiver",
      "type": "error"
    },
    {
      "inputs": [
        {
          "internalType": "address",
          "name": "sender",
          "type": "address"
        }
      ],
      "name": "ERC721InvalidSender",
      "type": "error"
    },
    {
      "inputs": [
        {
          "internalType": "uint256",
          "name": "tokenId",
          "type": "uint256"
        }
      ],
      "name": "ERC721NonexistentToken",
      "type": "error"
    },
    {
      "inputs": [
        {
          "internalType": "address",
          "name": "owner",
          "type": "address"
        }
      ],
      "name": "OwnableInvalidOwner",
      "type": "error"
    },
    {
      "inputs": [
        {
          "internalType": "address",
          "name": "account",
          "type": "address"
        }
      ],
      "name": "OwnableUnauthorizedAccount",
      "type": "error"
    },
    {
      "anonymous": false,
      "inputs": [
        {
          "indexed": true,
          "internalType": "address",
          "name": "owner",
          "type": "address"
        },
        {
          "indexed": true,
          "internalType": "address",
          "name": "approved",
          "type": "address"
        },
        {
          "indexed": true,
          "internalType": "uint256",
          "name": "tokenId",
          "type": "uint256"
        }
      ],
      "name": "Approval",
      "type": "event"
    },
    {
      "anonymous": false,
      "inputs": [
        {
          "indexed": true,
          "internalType": "address",
          "name": "owner",
          "type": "address"
        },
        {
          "indexed": true,
          "internalType": "address",
          "name": "operator",
          "type": "address"
        },
        {
          "indexed": false,
          "internalType": "bool",
          "name": "approved",
          "type": "bool"
        }
      ],
      "name": "ApprovalForAll",
      "type": "event"
    },
    {
      "anonymous": false,
      "inputs": [
        {
          "indexed": false,
          "internalType": "uint256",
          "name": "_fromTokenId",
          "type": "uint256"
        },
        {
          "indexed": false,
          "internalType": "uint256",
          "name": "_toTokenId",
          "type": "uint256"
        }
      ],
      "name": "BatchMetadataUpdate",
      "type": "event"
    },
    {
      "anonymous": false,
      "inputs": [
        {
          "indexed": false,
          "internalType": "uint256",
          "name": "_tokenId",
          "type": "uint256"
        }
      ],
      "name": "MetadataUpdate",
      "type": "event"
    },
    {
      "anonymous": false,
      "inputs": [
        {
          "indexed": false,
          "internalType": "uint256",
          "name": "newPrice",
          "type": "uint256"
        }
      ],
      "name": "MintPriceUpdated",
      "type": "event"
    },
    {
      "anonymous": false,
      "inputs": [
        {
          "indexed": true,
          "internalType": "address",
          "name": "to",
          "type": "address"
        },
        {
          "indexed": true,
          "internalType": "uint256",
          "name": "tokenId",
          "type": "uint256"
        },
        {
          "indexed": false,
          "internalType": "string",
          "name": "tokenURI",
          "type": "string"
        },
        {
          "indexed": false,
          "internalType": "uint256",
          "name": "price",
          "type": "uint256"
        }
      ],
      "name": "MusicMinted",
      "type": "event"
    },
    {
      "anonymous": false,
      "inputs": [
        {
          "indexed": true,
          "internalType": "address",
          "name": "buyer",
          "type": "address"
        },
        {
          "indexed": true,
          "internalType": "uint256",
          "name": "tokenId",
          "type": "uint256"
        },
        {
          "indexed": false,
          "internalType": "uint256",
          "name": "price",
          "type": "uint256"
        }
      ],
      "name": "MusicPurchased",
      "type": "event"
    },
    {
      "anonymous": false,
      "inputs": [
        {
          "indexed": true,
          "internalType": "address",
          "name": "previousOwner",
          "type": "address"
        },
        {
          "indexed": true,
          "internalType": "address",
          "name": "newOwner",
          "type": "address"
        }
      ],
      "name": "OwnershipTransferred",
      "type": "event"
    },
    {
      "anonymous": false,
      "inputs": [
        {
          "indexed": true,
          "internalType": "uint256",
          "name": "tokenId",
          "type": "uint256"
        },
        {
          "indexed": false,
          "internalType": "uint256",
          "name": "price",
          "type": "uint256"
        }
      ],
      "name": "PriceSet",
      "type": "event"
    },
    {
      "anonymous": false,
      "inputs": [
        {
          "indexed": true,
          "internalType": "address",
          "name": "from",
          "type": "address"
        },
        {
          "indexed": true,
          "internalType": "address",
          "name": "to",
          "type": "address"
        },
        {
          "indexed": true,
          "internalType": "uint256",
          "name": "tokenId",
          "type": "uint256"
        }
      ],
      "name": "Transfer",
      "type": "event"
    },
    {
      "inputs": [
        {
          "internalType": "address",
          "name": "to",
          "type": "address"
        },
        {
          "internalType": "uint256",
          "name": "tokenId",
          "type": "uint256"
        }
      ],
      "name": "approve",
      "outputs": [],
      "stateMutability": "nonpayable",
      "type": "function"
    },
    {
      "inputs": [
        {
          "internalType": "address",
          "name": "owner",
          "type": "address"
        }
      ],
      "name": "balanceOf",
      "outputs": [
        {
          "internalType": "uint256",
          "name": "",
          "type": "uint256"
        }
      ],
      "stateMutability": "view",
      "type": "function"
    },
    {
      "inputs": [
        {
          "internalType": "uint256",
          "name": "tokenId",
          "type": "uint256"
        },
        {
          "internalType": "address",
          "name": "buyer",
          "type": "address"
        },
        {
          "internalType": "uint256",
          "name": "amount",
          "type": "uint256"
        }
      ],
      "name": "buyNFT",
      "outputs": [],
      "stateMutability": "nonpayable",
      "type": "function"
    },
    {
      "inputs": [
        {
          "internalType": "uint256",
          "name": "tokenId",
          "type": "uint256"
        }
      ],
      "name": "exists",
      "outputs": [
        {
          "internalType": "bool",
          "name": "",
          "type": "bool"
        }
      ],
      "stateMutability": "view",
      "type": "function"
    },
    {
      "inputs": [
        {
          "internalType": "uint256",
          "name": "tokenId",
          "type": "uint256"
        }
      ],
      "name": "getApproved",
      "outputs": [
        {
          "internalType": "address",
          "name": "",
          "type": "address"
        }
      ],
      "stateMutability": "view",
      "type": "function"
    },
    {
      "inputs": [],
      "name": "getContractBalance",
      "outputs": [
        {
          "internalType": "uint256",
          "name": "",
          "type": "uint256"
        }
      ],
      "stateMutability": "view",
      "type": "function"
    },
    {
      "inputs": [
        {
          "internalType": "uint256",
          "name": "tokenId",
          "type": "uint256"
        }
      ],
      "name": "getTokenPrice",
      "outputs": [
        {
          "internalType": "uint256",
          "name": "",
          "type": "uint256"
        }
      ],
      "stateMutability": "view",
      "type": "function"
    },
    {
      "inputs": [
        {
          "internalType": "address",
          "name": "owner",
          "type": "address"
        },
        {
          "internalType": "address",
          "name": "operator",
          "type": "address"
        }
      ],
      "name": "isApprovedForAll",
      "outputs": [
        {
          "internalType": "bool",
          "name": "",
          "type": "bool"
        }
      ],
      "stateMutability": "view",
      "type": "function"
    },
    {
      "inputs": [
        {
          "internalType": "uint256",
          "name": "tokenId",
          "type": "uint256"
        }
      ],
      "name": "isForSale",
      "outputs": [
        {
          "internalType": "bool",
          "name": "",
          "type": "bool"
        }
      ],
      "stateMutability": "view",
      "type": "function"
    },
    {
      "inputs": [
        {
          "internalType": "address",
          "name": "to",
          "type": "address"
        },
        {
          "internalType": "string",
          "name": "tokenUriString",
          "type": "string"
        }
      ],
      "name": "mint",
      "outputs": [
        {
          "internalType": "uint256",
          "name": "",
          "type": "uint256"
        }
      ],
      "stateMutability": "nonpayable",
      "type": "function"
    },
    {
      "inputs": [],
      "name": "mintPrice",
      "outputs": [
        {
          "internalType": "uint256",
          "name": "",
          "type": "uint256"
        }
      ],
      "stateMutability": "view",
      "type": "function"
    },
    {
      "inputs": [],
      "name": "name",
      "outputs": [
        {
          "internalType": "string",
          "name": "",
          "type": "string"
        }
      ],
      "stateMutability": "view",
      "type": "function"
    },
    {
      "inputs": [],
      "name": "nextTokenId",
      "outputs": [
        {
          "internalType": "uint256",
          "name": "",
          "type": "uint256"
        }
      ],
      "stateMutability": "view",
      "type": "function"
    },
    {
      "inputs": [],
      "name": "owner",
      "outputs": [
        {
          "internalType": "address",
          "name": "",
          "type": "address"
        }
      ],
      "stateMutability": "view",
      "type": "function"
    },
    {
      "inputs": [
        {
          "internalType": "uint256",
          "name": "tokenId",
          "type": "uint256"
        }
      ],
      "name": "ownerOf",
      "outputs": [
        {
          "internalType": "address",
          "name": "",
          "type": "address"
        }
      ],
      "stateMutability": "view",
      "type": "function"
    },
    {
      "inputs": [],
      "name": "pyusd",
      "outputs": [
        {
          "internalType": "contract IERC20",
          "name": "",
          "type": "address"
        }
      ],
      "stateMutability": "view",
      "type": "function"
    },
    {
      "inputs": [],
      "name": "renounceOwnership",
      "outputs": [],
      "stateMutability": "nonpayable",
      "type": "function"
    },
    {
      "inputs": [
        {
          "internalType": "address",
          "name": "from",
          "type": "address"
        },
        {
          "internalType": "address",
          "name": "to",
          "type": "address"
        },
        {
          "internalType": "uint256",
          "name": "tokenId",
          "type": "uint256"
        }
      ],
      "name": "safeTransferFrom",
      "outputs": [],
      "stateMutability": "nonpayable",
      "type": "function"
    },
    {
      "inputs": [
        {
          "internalType": "address",
          "name": "from",
          "type": "address"
        },
        {
          "internalType": "address",
          "name": "to",
          "type": "address"
        },
        {
          "internalType": "uint256",
          "name": "tokenId",
          "type": "uint256"
        },
        {
          "internalType": "bytes",
          "name": "data",
          "type": "bytes"
        }
      ],
      "name": "safeTransferFrom",
      "outputs": [],
      "stateMutability": "nonpayable",
      "type": "function"
    },
    {
      "inputs": [
        {
          "internalType": "address",
          "name": "operator",
          "type": "address"
        },
        {
          "internalType": "bool",
          "name": "approved",
          "type": "bool"
        }
      ],
      "name": "setApprovalForAll",
      "outputs": [],
      "stateMutability": "nonpayable",
      "type": "function"
    },
    {
      "inputs": [
        {
          "internalType": "string",
          "name": "baseURI",
          "type": "string"
        }
      ],
      "name": "setBaseURI",
      "outputs": [],
      "stateMutability": "nonpayable",
      "type": "function"
    },
    {
      "inputs": [
        {
          "internalType": "uint256",
          "name": "newPrice",
          "type": "uint256"
        }
      ],
      "name": "setMintPrice",
      "outputs": [],
      "stateMutability": "nonpayable",
      "type": "function"
    },
    {
      "inputs": [
        {
          "internalType": "uint256",
          "name": "tokenId",
          "type": "uint256"
        },
        {
          "internalType": "uint256",
          "name": "price",
          "type": "uint256"
        }
      ],
      "name": "setTokenPrice",
      "outputs": [],
      "stateMutability": "nonpayable",
      "type": "function"
    },
    {
      "inputs": [
        {
          "internalType": "bytes4",
          "name": "interfaceId",
          "type": "bytes4"
        }
      ],
      "name": "supportsInterface",
      "outputs": [
        {
          "internalType": "bool",
          "name": "",
          "type": "bool"
        }
      ],
      "stateMutability": "view",
      "type": "function"
    },
    {
      "inputs": [],
      "name": "symbol",
      "outputs": [
        {
          "internalType": "string",
          "name": "",
          "type": "string"
        }
      ],
      "stateMutability": "view",
      "type": "function"
    },
    {
      "inputs": [
        {
          "internalType": "uint256",
          "name": "",
          "type": "uint256"
        }
      ],
      "name": "tokenPrices",
      "outputs": [
        {
          "internalType": "uint256",
          "name": "",
          "type": "uint256"
        }
      ],
      "stateMutability": "view",
      "type": "function"
    },
    {
      "inputs": [
        {
          "internalType": "uint256",
          "name": "tokenId",
          "type": "uint256"
        }
      ],
      "name": "tokenURI",
      "outputs": [
        {
          "internalType": "string",
          "name": "",
          "type": "string"
        }
      ],
      "stateMutability": "view",
      "type": "function"
    },
    {
      "inputs": [],
      "name": "totalSupply",
      "outputs": [
        {
          "internalType": "uint256",
          "name": "",
          "type": "uint256"
        }
      ],
      "stateMutability": "view",
      "type": "function"
    },
    {
      "inputs": [
        {
          "internalType": "address",
          "name": "from",
          "type": "address"
        },
        {
          "internalType": "address",
          "name": "to",
          "type": "address"
        },
        {
          "internalType": "uint256",
          "name": "tokenId",
          "type": "uint256"
        }
      ],
      "name": "transferFrom",
      "outputs": [],
      "stateMutability": "nonpayable",
      "type": "function"
    },
    {
      "inputs": [
        {
          "internalType": "address",
          "name": "newOwner",
          "type": "address"
        }
      ],
      "name": "transferOwnership",
      "outputs": [],
      "stateMutability": "nonpayable",
      "type": "function"
    },
    {
      "inputs": [
        {
          "internalType": "uint256",
          "name": "amount",
          "type": "uint256"
        }
      ],
      "name": "withdrawPYUSD",
      "outputs": [],
      "stateMutability": "nonpayable",
      "type": "function"
    }
  ],
  "bytecode": "0x60a06040523480156200001157600080fd5b50604051620027a7380380620027a78339810160408190526200003491620001d6565b338585600062000045838262000326565b50600162000054828262000326565b5050506001600160a01b0381166200008657604051631e4fbdf760e01b81526000600482015260240160405180910390fd5b6200009181620000bc565b506009620000a0848262000326565b506001600160a01b03909116608052600a5550620003f2915050565b600780546001600160a01b038381166001600160a01b0319831681179093556040519116919082907f8be0079c531659141344cd1fd0a4f28419497f9722a3daafe3b4186f6b6457e090600090a35050565b634e487b7160e01b600052604160045260246000fd5b600082601f8301126200013657600080fd5b81516001600160401b03808211156200015357620001536200010e565b604051601f8301601f19908116603f011681019082821181831017156200017e576200017e6200010e565b81604052838152602092508660208588010111156200019c57600080fd5b600091505b83821015620001c05785820183015181830184015290820190620001a1565b6000602085830101528094505050505092915050565b600080600080600060a08688031215620001ef57600080fd5b85516001600160401b03808211156200020757600080fd5b6200021589838a0162000124565b965060208801519150808211156200022c57600080fd5b6200023a89838a0162000124565b955060408801519150808211156200025157600080fd5b50620002608882890162000124565b606088015190945090506001600160a01b03811681146200028057600080fd5b80925050608086015190509295509295909350565b600181811c90821680620002aa57607f821691505b602082108103620002cb57634e487b7160e01b600052602260045260246000fd5b50919050565b601f82111562000321576000816000526020600020601f850160051c81016020861015620002fc5750805b601f850160051c820191505b818110156200031d5782815560010162000308565b5050505b505050565b81516001600160401b038111156200034257620003426200010e565b6200035a8162000353845462000295565b84620002d1565b602080601f831160018114620003925760008415620003795750858301515b600019600386901b1c1916600185901b1785556200031d565b600085815260208120601f198616915b82811015620003c357888601518255948401946001909101908401620003a2565b5085821015620003e25787850151600019600388901b60f8161c191681555b5050505050600190811b01905550565b6080516123686200043f600039600081816102a4015281816104ac015281816105840152818161093d01528181610b0b01528181610d8201528181610e6d0152610f6301526123686000f3fe608060405234801561001057600080fd5b50600436106101e55760003560e01c806370a082311161010f578063c457fb37116100a2578063e985e9c511610071578063e985e9c514610430578063eb685c4714610443578063f2fde38b14610456578063f4a0a5281461046957600080fd5b8063c457fb37146103ca578063c87b56dd146103ea578063d0def521146103fd578063e5afe3e61461041057600080fd5b80638da5cb5b116100de5780638da5cb5b1461038b57806395d89b411461039c578063a22cb465146103a4578063b88d4fde146103b757600080fd5b806370a082311461034e578063715018a61461036157806375794a3c1461027a5780638546d0021461036957600080fd5b806322e669d31161018757806355f804b31161015657806355f804b3146103175780636352211e1461032a5780636817c76c1461033d5780636f9fb98a1461034657600080fd5b806322e669d31461029f57806323b872dd146102c657806342842e0e146102d95780634f558e79146102ec57600080fd5b8063081812fc116101c3578063081812fc1461023c578063095ea7b31461026757806318160ddd1461027a578063185385431461028c57600080fd5b806301ffc9a7146101ea5780630571ebb91461021257806306fdde0314610227575b600080fd5b6101fd6101f8366004611cfb565b61047c565b60405190151581526020015b60405180910390f35b610225610220366004611d18565b61048d565b005b61022f610653565b6040516102099190611d81565b61024f61024a366004611d18565b6106e5565b6040516001600160a01b039091168152602001610209565b610225610275366004611db0565b61070e565b6008545b604051908152602001610209565b61022561029a366004611dda565b61071d565b61024f7f000000000000000000000000000000000000000000000000000000000000000081565b6102256102d4366004611e0f565b610a29565b6102256102e7366004611e0f565b610ab4565b6101fd6102fa366004611d18565b6000908152600260205260409020546001600160a01b0316151590565b610225610325366004611ee7565b610ad4565b61024f610338366004611d18565b610ae8565b61027e600a5481565b61027e610af3565b61027e61035c366004611f1c565b610b83565b610225610bcb565b6101fd610377366004611d18565b6000908152600b6020526040902054151590565b6007546001600160a01b031661024f565b61022f610bdf565b6102256103b2366004611f45565b610bee565b6102256103c5366004611f7c565b610bf9565b61027e6103d8366004611d18565b6000908152600b602052604090205490565b61022f6103f8366004611d18565b610c11565b61027e61040b366004611ff8565b610c1c565b61027e61041e366004611d18565b600b6020526000908152604090205481565b6101fd61043e366004612046565b61106c565b610225610451366004612079565b61109a565b610225610464366004611f1c565b611157565b610225610477366004611d18565b611192565b6000610487826111d5565b92915050565b6104956111fa565b6040516370a0823160e01b815230600482015281907f00000000000000000000000000000000000000000000000000000000000000006001600160a01b0316906370a0823190602401602060405180830381865afa1580156104fb573d6000803e3d6000fd5b505050506040513d601f19601f8201168201806040525081019061051f919061209b565b10156105825760405162461bcd60e51b815260206004820152602760248201527f4d757369634e46543a20696e73756666696369656e7420636f6e74726163742060448201526662616c616e636560c81b60648201526084015b60405180910390fd5b7f00000000000000000000000000000000000000000000000000000000000000006001600160a01b031663a9059cbb6105c36007546001600160a01b031690565b6040516001600160e01b031960e084901b1681526001600160a01b039091166004820152602481018490526044016020604051808303816000875af1158015610610573d6000803e3d6000fd5b505050506040513d601f19601f8201168201806040525081019061063491906120b4565b6106505760405162461bcd60e51b8152600401610579906120d1565b50565b60606000805461066290612108565b80601f016020809104026020016040519081016040528092919081815260200182805461068e90612108565b80156106db5780601f106106b0576101008083540402835291602001916106db565b820191906000526020600020905b8154815290600101906020018083116106be57829003601f168201915b5050505050905090565b60006106f082611227565b506000828152600460205260409020546001600160a01b0316610487565b610719828233611260565b5050565b6000838152600260205260409020546001600160a01b03166107815760405162461bcd60e51b815260206004820152601e60248201527f4d757369634e46543a20746f6b656e20646f6573206e6f7420657869737400006044820152606401610579565b6000838152600b60205260409020546107dc5760405162461bcd60e51b815260206004820152601c60248201527f4d757369634e46543a20746f6b656e206e6f7420666f722073616c65000000006044820152606401610579565b6000838152600b602052604090205481101561083a5760405162461bcd60e51b815260206004820152601e60248201527f4d757369634e46543a20696e73756666696369656e74207061796d656e7400006044820152606401610579565b6001600160a01b0382166108905760405162461bcd60e51b815260206004820152601f60248201527f4d757369634e46543a20696e76616c69642062757965722061646472657373006044820152606401610579565b600061089b84610ae8565b9050826001600160a01b0316816001600160a01b0316036108fe5760405162461bcd60e51b815260206004820152601e60248201527f4d757369634e46543a2063616e6e6f7420627579206f776e20746f6b656e00006044820152606401610579565b6000848152600b6020526040908190205490516323b872dd60e01b81526001600160a01b038581166004830152838116602483015260448201929092527f0000000000000000000000000000000000000000000000000000000000000000909116906323b872dd906064016020604051808303816000875af1158015610988573d6000803e3d6000fd5b505050506040513d601f19601f820116820180604052508101906109ac91906120b4565b6109c85760405162461bcd60e51b8152600401610579906120d1565b6109d381848661126d565b6000848152600b602090815260408083208390555191825285916001600160a01b038616917f01ff821e9def963c805dc6fcef2e527b0a7075c952cdc05765e9e30238e6a36c910160405180910390a350505050565b6001600160a01b038216610a5357604051633250574960e11b815260006004820152602401610579565b6000610a6083833361131d565b9050836001600160a01b0316816001600160a01b031614610aae576040516364283d7b60e01b81526001600160a01b0380861660048301526024820184905282166044820152606401610579565b50505050565b610acf83838360405180602001604052806000815250610bf9565b505050565b610adc6111fa565b6009610719828261218a565b600061048782611227565b6040516370a0823160e01b81523060048201526000907f00000000000000000000000000000000000000000000000000000000000000006001600160a01b0316906370a0823190602401602060405180830381865afa158015610b5a573d6000803e3d6000fd5b505050506040513d601f19601f82011682018060405250810190610b7e919061209b565b905090565b60006001600160a01b038216610baf576040516322718ad960e21b815260006004820152602401610579565b506001600160a01b031660009081526003602052604090205490565b610bd36111fa565b610bdd6000611416565b565b60606001805461066290612108565b610719338383611468565b610c04848484610a29565b610aae3385858585611507565b606061048782611632565b60006001600160a01b038316610c825760405162461bcd60e51b815260206004820152602560248201527f4d757369634e46543a2063616e6e6f74206d696e7420746f207a65726f206164604482015264647265737360d81b6064820152608401610579565b6000825111610cde5760405162461bcd60e51b815260206004820152602260248201527f4d757369634e46543a20746f6b656e5552492063616e6e6f7420626520656d70604482015261747960f01b6064820152608401610579565b610ce782611736565b610d6a5760405162461bcd60e51b815260206004820152604860248201527f4d757369634e46543a20746f6b656e555249206d75737420626520612076616c60448201527f69642057616c7275732f5475736b792055524920287475736b792d77616c7275606482015267733a2f2f2e2e2e2960c01b608482015260a401610579565b600a546040516370a0823160e01b81523360048201527f00000000000000000000000000000000000000000000000000000000000000006001600160a01b0316906370a0823190602401602060405180830381865afa158015610dd1573d6000803e3d6000fd5b505050506040513d601f19601f82011682018060405250810190610df5919061209b565b1015610e4f5760405162461bcd60e51b8152602060048201526024808201527f4d757369634e46543a20696e73756666696369656e742050595553442062616c604482015263616e636560e01b6064820152608401610579565b600a54604051636eb1769f60e11b81523360048201523060248201527f00000000000000000000000000000000000000000000000000000000000000006001600160a01b03169063dd62ed3e90604401602060405180830381865afa158015610ebc573d6000803e3d6000fd5b505050506040513d601f19601f82011682018060405250810190610ee0919061209b565b1015610f3d5760405162461bcd60e51b815260206004820152602660248201527f4d757369634e46543a20696e73756666696369656e7420505955534420616c6c6044820152656f77616e636560d01b6064820152608401610579565b600a546040516323b872dd60e01b815233600482015230602482015260448101919091527f00000000000000000000000000000000000000000000000000000000000000006001600160a01b0316906323b872dd906064016020604051808303816000875af1158015610fb4573d6000803e3d6000fd5b505050506040513d601f19601f82011682018060405250810190610fd891906120b4565b610ff45760405162461bcd60e51b8152600401610579906120d1565b6008805490819060006110068361224a565b919050555061101584826117ff565b61101f8184611819565b80846001600160a01b03167f08281f2426b9db5f2f1a473af66b635cb422b3e4ee0886897a796ab9911cf88585600a5460405161105d929190612271565b60405180910390a39392505050565b6001600160a01b03918216600090815260056020908152604080832093909416825291909152205460ff1690565b6110a26111fa565b6000828152600260205260409020546001600160a01b03166111065760405162461bcd60e51b815260206004820152601e60248201527f4d757369634e46543a20746f6b656e20646f6573206e6f7420657869737400006044820152606401610579565b6000828152600b6020526040908190208290555182907fa0f1665b7b659537b52deec61ea64d134a3bccda74c7f4e79f2246e7a8187a8a9061114b9084815260200190565b60405180910390a25050565b61115f6111fa565b6001600160a01b03811661118957604051631e4fbdf760e01b815260006004820152602401610579565b61065081611416565b61119a6111fa565b600a8190556040518181527f525b762709cc2a983aec5ccdfd807a061f993c91090b5bcd7da92ca254976aaa9060200160405180910390a150565b60006001600160e01b03198216632483248360e11b1480610487575061048782611869565b6007546001600160a01b03163314610bdd5760405163118cdaa760e01b8152336004820152602401610579565b6000818152600260205260408120546001600160a01b03168061048757604051637e27328960e01b815260048101849052602401610579565b610acf83838360016118b9565b6001600160a01b03821661129757604051633250574960e11b815260006004820152602401610579565b60006112a58383600061131d565b90506001600160a01b0381166112d157604051637e27328960e01b815260048101839052602401610579565b836001600160a01b0316816001600160a01b031614610aae576040516364283d7b60e01b81526001600160a01b0380861660048301526024820184905282166044820152606401610579565b6000828152600260205260408120546001600160a01b039081169083161561134a5761134a8184866119bf565b6001600160a01b03811615611388576113676000856000806118b9565b6001600160a01b038116600090815260036020526040902080546000190190555b6001600160a01b038516156113b7576001600160a01b0385166000908152600360205260409020805460010190555b60008481526002602052604080822080546001600160a01b0319166001600160a01b0389811691821790925591518793918516917fddf252ad1be2c89b69c2b068fc378daa952ba7f163c4a11628f55a4df523b3ef91a4949350505050565b600780546001600160a01b038381166001600160a01b0319831681179093556040519116919082907f8be0079c531659141344cd1fd0a4f28419497f9722a3daafe3b4186f6b6457e090600090a35050565b6001600160a01b03821661149a57604051630b61174360e31b81526001600160a01b0383166004820152602401610579565b6001600160a01b03838116600081815260056020908152604080832094871680845294825291829020805460ff191686151590811790915591519182527f17307eab39ab6107e8899845ad3d59bd9653f200f220920489ca2b5937696c31910160405180910390a3505050565b6001600160a01b0383163b1561162b57604051630a85bd0160e11b81526001600160a01b0384169063150b7a0290611549908890889087908790600401612293565b6020604051808303816000875af1925050508015611584575060408051601f3d908101601f19168201909252611581918101906122d0565b60015b6115ed573d8080156115b2576040519150601f19603f3d011682016040523d82523d6000602084013e6115b7565b606091505b5080516000036115e557604051633250574960e11b81526001600160a01b0385166004820152602401610579565b805160208201fd5b6001600160e01b03198116630a85bd0160e11b1461162957604051633250574960e11b81526001600160a01b0385166004820152602401610579565b505b5050505050565b606061163d82611227565b506000828152600660205260408120805461165790612108565b80601f016020809104026020016040519081016040528092919081815260200182805461168390612108565b80156116d05780601f106116a5576101008083540402835291602001916116d0565b820191906000526020600020905b8154815290600101906020018083116116b357829003601f168201915b5050505050905060006116e1611a23565b905080516000036116f3575092915050565b81511561172557808260405160200161170d9291906122ed565b60405160208183030381529060405292505050919050565b61172e84611a32565b949350505050565b600080829050600f8151101561174f5750600092915050565b60408051808201909152600f8082526e7475736b792d77616c7275733a2f2f60881b602083015282511015611788575060009392505050565b60005b81518110156117f4578181815181106117a6576117a661231c565b602001015160f81c60f81b6001600160f81b0319168382815181106117cd576117cd61231c565b01602001516001600160f81b031916146117ec57506000949350505050565b60010161178b565b506001949350505050565b610719828260405180602001604052806000815250611a9a565b6000828152600660205260409020611831828261218a565b506040518281527ff8e1a15aba9398e019f0b49df1a4fde98ee17ae345cb5f6b5e2c27f5033e8ce79060200160405180910390a15050565b60006001600160e01b031982166380ac58cd60e01b148061189a57506001600160e01b03198216635b5e139f60e01b145b8061048757506301ffc9a760e01b6001600160e01b0319831614610487565b80806118cd57506001600160a01b03821615155b1561198f5760006118dd84611227565b90506001600160a01b038316158015906119095750826001600160a01b0316816001600160a01b031614155b801561191c575061191a818461106c565b155b156119455760405163a9fbf51f60e01b81526001600160a01b0384166004820152602401610579565b811561198d5783856001600160a01b0316826001600160a01b03167f8c5be1e5ebec7d5bd14f71427d1e84f3dd0314c0f7b2291e5b200ac8c7c3b92560405160405180910390a45b505b5050600090815260046020526040902080546001600160a01b0319166001600160a01b0392909216919091179055565b6119ca838383611ab2565b610acf576001600160a01b0383166119f857604051637e27328960e01b815260048101829052602401610579565b60405163177e802f60e01b81526001600160a01b038316600482015260248101829052604401610579565b60606009805461066290612108565b6060611a3d82611227565b506000611a48611a23565b90506000815111611a685760405180602001604052806000815250611a93565b80611a7284611b15565b604051602001611a839291906122ed565b6040516020818303038152906040525b9392505050565b611aa48383611ba8565b610acf336000858585611507565b60006001600160a01b0383161580159061172e5750826001600160a01b0316846001600160a01b03161480611aec5750611aec848461106c565b8061172e5750506000908152600460205260409020546001600160a01b03908116911614919050565b60606000611b2283611c0d565b600101905060008167ffffffffffffffff811115611b4257611b42611e3b565b6040519080825280601f01601f191660200182016040528015611b6c576020820181803683370190505b5090508181016020015b600019016f181899199a1a9b1b9c1cb0b131b232b360811b600a86061a8153600a8504945084611b7657509392505050565b6001600160a01b038216611bd257604051633250574960e11b815260006004820152602401610579565b6000611be08383600061131d565b90506001600160a01b03811615610acf576040516339e3563760e11b815260006004820152602401610579565b60008072184f03e93ff9f4daa797ed6e38ed64bf6a1f0160401b8310611c4c5772184f03e93ff9f4daa797ed6e38ed64bf6a1f0160401b830492506040015b6d04ee2d6d415b85acef81000000008310611c78576d04ee2d6d415b85acef8100000000830492506020015b662386f26fc100008310611c9657662386f26fc10000830492506010015b6305f5e1008310611cae576305f5e100830492506008015b6127108310611cc257612710830492506004015b60648310611cd4576064830492506002015b600a83106104875760010192915050565b6001600160e01b03198116811461065057600080fd5b600060208284031215611d0d57600080fd5b8135611a9381611ce5565b600060208284031215611d2a57600080fd5b5035919050565b60005b83811015611d4c578181015183820152602001611d34565b50506000910152565b60008151808452611d6d816020860160208601611d31565b601f01601f19169290920160200192915050565b602081526000611a936020830184611d55565b80356001600160a01b0381168114611dab57600080fd5b919050565b60008060408385031215611dc357600080fd5b611dcc83611d94565b946020939093013593505050565b600080600060608486031215611def57600080fd5b83359250611dff60208501611d94565b9150604084013590509250925092565b600080600060608486031215611e2457600080fd5b611e2d84611d94565b9250611dff60208501611d94565b634e487b7160e01b600052604160045260246000fd5b600067ffffffffffffffff80841115611e6c57611e6c611e3b565b604051601f8501601f19908116603f01168101908282118183101715611e9457611e94611e3b565b81604052809350858152868686011115611ead57600080fd5b858560208301376000602087830101525050509392505050565b600082601f830112611ed857600080fd5b611a9383833560208501611e51565b600060208284031215611ef957600080fd5b813567ffffffffffffffff811115611f1057600080fd5b61172e84828501611ec7565b600060208284031215611f2e57600080fd5b611a9382611d94565b801515811461065057600080fd5b60008060408385031215611f5857600080fd5b611f6183611d94565b91506020830135611f7181611f37565b809150509250929050565b60008060008060808587031215611f9257600080fd5b611f9b85611d94565b9350611fa960208601611d94565b925060408501359150606085013567ffffffffffffffff811115611fcc57600080fd5b8501601f81018713611fdd57600080fd5b611fec87823560208401611e51565b91505092959194509250565b6000806040838503121561200b57600080fd5b61201483611d94565b9150602083013567ffffffffffffffff81111561203057600080fd5b61203c85828601611ec7565b9150509250929050565b6000806040838503121561205957600080fd5b61206283611d94565b915061207060208401611d94565b90509250929050565b6000806040838503121561208c57600080fd5b50508035926020909101359150565b6000602082840312156120ad57600080fd5b5051919050565b6000602082840312156120c657600080fd5b8151611a9381611f37565b6020808252601f908201527f4d757369634e46543a205059555344207472616e73666572206661696c656400604082015260600190565b600181811c9082168061211c57607f821691505b60208210810361213c57634e487b7160e01b600052602260045260246000fd5b50919050565b601f821115610acf576000816000526020600020601f850160051c8101602086101561216b5750805b601f850160051c820191505b8181101561162957828155600101612177565b815167ffffffffffffffff8111156121a4576121a4611e3b565b6121b8816121b28454612108565b84612142565b602080601f8311600181146121ed57600084156121d55750858301515b600019600386901b1c1916600185901b178555611629565b600085815260208120601f198616915b8281101561221c578886015182559484019460019091019084016121fd565b508582101561223a5787850151600019600388901b60f8161c191681555b5050505050600190811b01905550565b60006001820161226a57634e487b7160e01b600052601160045260246000fd5b5060010190565b6040815260006122846040830185611d55565b90508260208301529392505050565b6001600160a01b03858116825284166020820152604081018390526080606082018190526000906122c690830184611d55565b9695505050505050565b6000602082840312156122e257600080fd5b8151611a9381611ce5565b600083516122ff818460208801611d31565b835190830190612313818360208801611d31565b01949350505050565b634e487b7160e01b600052603260045260246000fdfea2646970667358221220ad993aa97b0afebd8662b992b631fe99ac898f2f8ce460f10b0db29cf98a29d164736f6c63430008180033",
  "linkReferences": {},
  "deployedLinkReferences": {}
}