{
  "_format": "hh-sol-artifact-1",
  "contractName": "MusicNFTV2",
  "sourceName": "contracts/MusicNFTV2.sol",
  "abi": [
    {
      "inputs": [
        {
          "internalType": "string",
          "name": "name",
          "type": "string"
        },
        {
          "internalType": "string",
          "name": "symbol",
          "type": "string"
        },
        {
          "internalType": "string",
          "name": "baseTokenURI",
          "type": "string"
        },
        {
          "internalType": "address",
          "name": "_pyusd",
          "type": "address"
        },
        {
          "internalType": "uint256",
          "name": "_mintPrice",
          "type": "uint256"
        }
      ],
      "stateMutability": "nonpayable",
      "type": "constructor"
    },
    {
      "inputs": [
        {
          "internalType": "address",
          "name": "sender",
          "type": "address"
        },
        {
          "internalType": "uint256",
          "name": "tokenId",
          "type": "uint256"
        },
        {
          "internalType": "address",
          "name": "owner",
          "type": "address"
        }
      ],
      "name": "ERC721IncorrectOwner",
      "type": "error"
    },
    {
      "inputs": [
        {
          "internalType": "address",
          "name": "operator",
          "type": "address"
        },
        {
          "internalType": "uint256",
          "name": "tokenId",
          "type": "uint256"
        }
      ],
      "name": "ERC721InsufficientApproval",
      "type": "error"
    },
    {
      "inputs": [
        {
          "internalType": "address",
          "name": "approver",
          "type": "address"
        }
      ],
      "name": "ERC721InvalidApprover",
      "type": "error"
    },
    {
      "inputs": [
        {
          "internalType": "address",
          "name": "operator",
          "type": "address"
        }
      ],
      "name": "ERC721InvalidOperator",
      "type": "error"
    },
    {
      "inputs": [
        {
          "internalType": "address",
          "name": "owner",
          "type": "address"
        }
      ],
      "name": "ERC721InvalidOwner",
      "type": "error"
    },
    {
      "inputs": [
        {
          "internalType": "address",
          "name": "receiver",
          "type": "address"
        }
      ],
      "name": "ERC721InvalidReceiver",
      "type": "error"
    },
    {
      "inputs": [
        {
          "internalType": "address",
          "name": "sender",
          "type": "address"
        }
      ],
      "name": "ERC721InvalidSender",
      "type": "error"
    },
    {
      "inputs": [
        {
          "internalType": "uint256",
          "name": "tokenId",
          "type": "uint256"
        }
      ],
      "name": "ERC721NonexistentToken",
      "type": "error"
    },
    {
      "inputs": [
        {
          "internalType": "address",
          "name": "owner",
          "type": "address"
        }
      ],
      "name": "OwnableInvalidOwner",
      "type": "error"
    },
    {
      "inputs": [
        {
          "internalType": "address",
          "name": "account",
          "type": "address"
        }
      ],
      "name": "OwnableUnauthorizedAccount",
      "type": "error"
    },
    {
      "anonymous": false,
      "inputs": [
        {
          "indexed": true,
          "internalType": "address",
          "name": "owner",
          "type": "address"
        },
        {
          "indexed": true,
          "internalType": "address",
          "name": "approved",
          "type": "address"
        },
        {
          "indexed": true,
          "internalType": "uint256",
          "name": "tokenId",
          "type": "uint256"
        }
      ],
      "name": "Approval",
      "type": "event"
    },
    {
      "anonymous": false,
      "inputs": [
        {
          "indexed": true,
          "internalType": "address",
          "name": "owner",
          "type": "address"
        },
        {
          "indexed": true,
          "internalType": "address",
          "name": "operator",
          "type": "address"
        },
        {
          "indexed": false,
          "internalType": "bool",
          "name": "approved",
          "type": "bool"
        }
      ],
      "name": "ApprovalForAll",
      "type": "event"
    },
    {
      "anonymous": false,
      "inputs": [
        {
          "indexed": false,
          "internalType": "uint256",
          "name": "_fromTokenId",
          "type": "uint256"
        },
        {
          "indexed": false,
          "internalType": "uint256",
          "name": "_toTokenId",
          "type": "uint256"
        }
      ],
      "name": "BatchMetadataUpdate",
      "type": "event"
    },
    {
      "anonymous": false,
      "inputs": [
        {
          "indexed": false,
          "internalType": "uint256",
          "name": "_tokenId",
          "type": "uint256"
        }
      ],
      "name": "MetadataUpdate",
      "type": "event"
    },
    {
      "anonymous": false,
      "inputs": [
        {
          "indexed": false,
          "internalType": "uint256",
          "name": "newPrice",
          "type": "uint256"
        }
      ],
      "name": "MintPriceUpdated",
      "type": "event"
    },
    {
      "anonymous": false,
      "inputs": [
        {
          "indexed": true,
          "internalType": "address",
          "name": "to",
          "type": "address"
        },
        {
          "indexed": true,
          "internalType": "uint256",
          "name": "tokenId",
          "type": "uint256"
        },
        {
          "indexed": false,
          "internalType": "string",
          "name": "tokenURI",
          "type": "string"
        },
        {
          "indexed": false,
          "internalType": "uint256",
          "name": "price",
          "type": "uint256"
        }
      ],
      "name": "MusicMinted",
      "type": "event"
    },
    {
      "anonymous": false,
      "inputs": [
        {
          "indexed": true,
          "internalType": "address",
          "name": "buyer",
          "type": "address"
        },
        {
          "indexed": true,
          "internalType": "uint256",
          "name": "tokenId",
          "type": "uint256"
        },
        {
          "indexed": false,
          "internalType": "uint256",
          "name": "price",
          "type": "uint256"
        }
      ],
      "name": "MusicPurchased",
      "type": "event"
    },
    {
      "anonymous": false,
      "inputs": [
        {
          "indexed": true,
          "internalType": "address",
          "name": "previousOwner",
          "type": "address"
        },
        {
          "indexed": true,
          "internalType": "address",
          "name": "newOwner",
          "type": "address"
        }
      ],
      "name": "OwnershipTransferred",
      "type": "event"
    },
    {
      "anonymous": false,
      "inputs": [
        {
          "indexed": true,
          "internalType": "uint256",
          "name": "tokenId",
          "type": "uint256"
        },
        {
          "indexed": false,
          "internalType": "uint256",
          "name": "price",
          "type": "uint256"
        }
      ],
      "name": "PriceSet",
      "type": "event"
    },
    {
      "anonymous": false,
      "inputs": [
        {
          "indexed": true,
          "internalType": "address",
          "name": "from",
          "type": "address"
        },
        {
          "indexed": true,
          "internalType": "address",
          "name": "to",
          "type": "address"
        },
        {
          "indexed": true,
          "internalType": "uint256",
          "name": "tokenId",
          "type": "uint256"
        }
      ],
      "name": "Transfer",
      "type": "event"
    },
    {
      "inputs": [
        {
          "internalType": "address",
          "name": "to",
          "type": "address"
        },
        {
          "internalType": "uint256",
          "name": "tokenId",
          "type": "uint256"
        }
      ],
      "name": "approve",
      "outputs": [],
      "stateMutability": "nonpayable",
      "type": "function"
    },
    {
      "inputs": [
        {
          "internalType": "address",
          "name": "owner",
          "type": "address"
        }
      ],
      "name": "balanceOf",
      "outputs": [
        {
          "internalType": "uint256",
          "name": "",
          "type": "uint256"
        }
      ],
      "stateMutability": "view",
      "type": "function"
    },
    {
      "inputs": [
        {
          "internalType": "uint256",
          "name": "tokenId",
          "type": "uint256"
        },
        {
          "internalType": "address",
          "name": "buyer",
          "type": "address"
        },
        {
          "internalType": "uint256",
          "name": "amount",
          "type": "uint256"
        }
      ],
      "name": "buyNFT",
      "outputs": [],
      "stateMutability": "nonpayable",
      "type": "function"
    },
    {
      "inputs": [
        {
          "internalType": "uint256",
          "name": "tokenId",
          "type": "uint256"
        }
      ],
      "name": "exists",
      "outputs": [
        {
          "internalType": "bool",
          "name": "",
          "type": "bool"
        }
      ],
      "stateMutability": "view",
      "type": "function"
    },
    {
      "inputs": [
        {
          "internalType": "uint256",
          "name": "tokenId",
          "type": "uint256"
        }
      ],
      "name": "getApproved",
      "outputs": [
        {
          "internalType": "address",
          "name": "",
          "type": "address"
        }
      ],
      "stateMutability": "view",
      "type": "function"
    },
    {
      "inputs": [],
      "name": "getContractBalance",
      "outputs": [
        {
          "internalType": "uint256",
          "name": "",
          "type": "uint256"
        }
      ],
      "stateMutability": "view",
      "type": "function"
    },
    {
      "inputs": [
        {
          "internalType": "uint256",
          "name": "tokenId",
          "type": "uint256"
        }
      ],
      "name": "getTokenPrice",
      "outputs": [
        {
          "internalType": "uint256",
          "name": "",
          "type": "uint256"
        }
      ],
      "stateMutability": "view",
      "type": "function"
    },
    {
      "inputs": [
        {
          "internalType": "address",
          "name": "owner",
          "type": "address"
        },
        {
          "internalType": "address",
          "name": "operator",
          "type": "address"
        }
      ],
      "name": "isApprovedForAll",
      "outputs": [
        {
          "internalType": "bool",
          "name": "",
          "type": "bool"
        }
      ],
      "stateMutability": "view",
      "type": "function"
    },
    {
      "inputs": [
        {
          "internalType": "uint256",
          "name": "tokenId",
          "type": "uint256"
        }
      ],
      "name": "isForSale",
      "outputs": [
        {
          "internalType": "bool",
          "name": "",
          "type": "bool"
        }
      ],
      "stateMutability": "view",
      "type": "function"
    },
    {
      "inputs": [
        {
          "internalType": "address",
          "name": "to",
          "type": "address"
        },
        {
          "internalType": "string",
          "name": "tokenUriString",
          "type": "string"
        }
      ],
      "name": "mint",
      "outputs": [
        {
          "internalType": "uint256",
          "name": "",
          "type": "uint256"
        }
      ],
      "stateMutability": "nonpayable",
      "type": "function"
    },
    {
      "inputs": [],
      "name": "mintPrice",
      "outputs": [
        {
          "internalType": "uint256",
          "name": "",
          "type": "uint256"
        }
      ],
      "stateMutability": "view",
      "type": "function"
    },
    {
      "inputs": [],
      "name": "name",
      "outputs": [
        {
          "internalType": "string",
          "name": "",
          "type": "string"
        }
      ],
      "stateMutability": "view",
      "type": "function"
    },
    {
      "inputs": [],
      "name": "nextTokenId",
      "outputs": [
        {
          "internalType": "uint256",
          "name": "",
          "type": "uint256"
        }
      ],
      "stateMutability": "view",
      "type": "function"
    },
    {
      "inputs": [],
      "name": "owner",
      "outputs": [
        {
          "internalType": "address",
          "name": "",
          "type": "address"
        }
      ],
      "stateMutability": "view",
      "type": "function"
    },
    {
      "inputs": [
        {
          "internalType": "uint256",
          "name": "tokenId",
          "type": "uint256"
        }
      ],
      "name": "ownerOf",
      "outputs": [
        {
          "internalType": "address",
          "name": "",
          "type": "address"
        }
      ],
      "stateMutability": "view",
      "type": "function"
    },
    {
      "inputs": [],
      "name": "pyusd",
      "outputs": [
        {
          "internalType": "contract IERC20",
          "name": "",
          "type": "address"
        }
      ],
      "stateMutability": "view",
      "type": "function"
    },
    {
      "inputs": [],
      "name": "renounceOwnership",
      "outputs": [],
      "stateMutability": "nonpayable",
      "type": "function"
    },
    {
      "inputs": [
        {
          "internalType": "address",
          "name": "from",
          "type": "address"
        },
        {
          "internalType": "address",
          "name": "to",
          "type": "address"
        },
        {
          "internalType": "uint256",
          "name": "tokenId",
          "type": "uint256"
        }
      ],
      "name": "safeTransferFrom",
      "outputs": [],
      "stateMutability": "nonpayable",
      "type": "function"
    },
    {
      "inputs": [
        {
          "internalType": "address",
          "name": "from",
          "type": "address"
        },
        {
          "internalType": "address",
          "name": "to",
          "type": "address"
        },
        {
          "internalType": "uint256",
          "name": "tokenId",
          "type": "uint256"
        },
        {
          "internalType": "bytes",
          "name": "data",
          "type": "bytes"
        }
      ],
      "name": "safeTransferFrom",
      "outputs": [],
      "stateMutability": "nonpayable",
      "type": "function"
    },
    {
      "inputs": [
        {
          "internalType": "address",
          "name": "operator",
          "type": "address"
        },
        {
          "internalType": "bool",
          "name": "approved",
          "type": "bool"
        }
      ],
      "name": "setApprovalForAll",
      "outputs": [],
      "stateMutability": "nonpayable",
      "type": "function"
    },
    {
      "inputs": [
        {
          "internalType": "string",
          "name": "baseURI",
          "type": "string"
        }
      ],
      "name": "setBaseURI",
      "outputs": [],
      "stateMutability": "nonpayable",
      "type": "function"
    },
    {
      "inputs": [
        {
          "internalType": "uint256",
          "name": "newPrice",
          "type": "uint256"
        }
      ],
      "name": "setMintPrice",
      "outputs": [],
      "stateMutability": "nonpayable",
      "type": "function"
    },
    {
      "inputs": [
        {
          "internalType": "uint256",
          "name": "tokenId",
          "type": "uint256"
        },
        {
          "internalType": "uint256",
          "name": "price",
          "type": "uint256"
        }
      ],
      "name": "setTokenPrice",
      "outputs": [],
      "stateMutability": "nonpayable",
      "type": "function"
    },
    {
      "inputs": [
        {
          "internalType": "bytes4",
          "name": "interfaceId",
          "type": "bytes4"
        }
      ],
      "name": "supportsInterface",
      "outputs": [
        {
          "internalType": "bool",
          "name": "",
          "type": "bool"
        }
      ],
      "stateMutability": "view",
      "type": "function"
    },
    {
      "inputs": [],
      "name": "symbol",
      "outputs": [
        {
          "internalType": "string",
          "name": "",
          "type": "string"
        }
      ],
      "stateMutability": "view",
      "type": "function"
    },
    {
      "inputs": [
        {
          "internalType": "uint256",
          "name": "",
          "type": "uint256"
        }
      ],
      "name": "tokenPrices",
      "outputs": [
        {
          "internalType": "uint256",
          "name": "",
          "type": "uint256"
        }
      ],
      "stateMutability": "view",
      "type": "function"
    },
    {
      "inputs": [
        {
          "internalType": "uint256",
          "name": "tokenId",
          "type": "uint256"
        }
      ],
      "name": "tokenURI",
      "outputs": [
        {
          "internalType": "string",
          "name": "",
          "type": "string"
        }
      ],
      "stateMutability": "view",
      "type": "function"
    },
    {
      "inputs": [],
      "name": "totalSupply",
      "outputs": [
        {
          "internalType": "uint256",
          "name": "",
          "type": "uint256"
        }
      ],
      "stateMutability": "view",
      "type": "function"
    },
    {
      "inputs": [
        {
          "internalType": "address",
          "name": "from",
          "type": "address"
        },
        {
          "internalType": "address",
          "name": "to",
          "type": "address"
        },
        {
          "internalType": "uint256",
          "name": "tokenId",
          "type": "uint256"
        }
      ],
      "name": "transferFrom",
      "outputs": [],
      "stateMutability": "nonpayable",
      "type": "function"
    },
    {
      "inputs": [
        {
          "internalType": "address",
          "name": "newOwner",
          "type": "address"
        }
      ],
      "name": "transferOwnership",
      "outputs": [],
      "stateMutability": "nonpayable",
      "type": "function"
    },
    {
      "inputs": [
        {
          "internalType": "uint256",
          "name": "amount",
          "type": "uint256"
        }
      ],
      "name": "withdrawPYUSD",
      "outputs": [],
      "stateMutability": "nonpayable",
      "type": "function"
    }
  ],
  "bytecode": "0x60a06040523480156200001157600080fd5b506040516200284b3803806200284b8339810160408190526200003491620001d6565b338585600062000045838262000326565b50600162000054828262000326565b5050506001600160a01b0381166200008657604051631e4fbdf760e01b81526000600482015260240160405180910390fd5b6200009181620000bc565b506009620000a0848262000326565b506001600160a01b03909116608052600a5550620003f2915050565b600780546001600160a01b038381166001600160a01b0319831681179093556040519116919082907f8be0079c531659141344cd1fd0a4f28419497f9722a3daafe3b4186f6b6457e090600090a35050565b634e487b7160e01b600052604160045260246000fd5b600082601f8301126200013657600080fd5b81516001600160401b03808211156200015357620001536200010e565b604051601f8301601f19908116603f011681019082821181831017156200017e576200017e6200010e565b81604052838152602092508660208588010111156200019c57600080fd5b600091505b83821015620001c05785820183015181830184015290820190620001a1565b6000602085830101528094505050505092915050565b600080600080600060a08688031215620001ef57600080fd5b85516001600160401b03808211156200020757600080fd5b6200021589838a0162000124565b965060208801519150808211156200022c57600080fd5b6200023a89838a0162000124565b955060408801519150808211156200025157600080fd5b50620002608882890162000124565b606088015190945090506001600160a01b03811681146200028057600080fd5b80925050608086015190509295509295909350565b600181811c90821680620002aa57607f821691505b602082108103620002cb57634e487b7160e01b600052602260045260246000fd5b50919050565b601f82111562000321576000816000526020600020601f850160051c81016020861015620002fc5750805b601f850160051c820191505b818110156200031d5782815560010162000308565b5050505b505050565b81516001600160401b038111156200034257620003426200010e565b6200035a8162000353845462000295565b84620002d1565b602080601f831160018114620003925760008415620003795750858301515b600019600386901b1c1916600185901b1785556200031d565b600085815260208120601f198616915b82811015620003c357888601518255948401946001909101908401620003a2565b5085821015620003e25787850151600019600388901b60f8161c191681555b5050505050600190811b01905550565b60805161240c6200043f600039600081816102a4015281816104ac015281816105840152818161093d01528181610b0b01528181610d8101528181610e6c0152610f62015261240c6000f3fe608060405234801561001057600080fd5b50600436106101e55760003560e01c806370a082311161010f578063c457fb37116100a2578063e985e9c511610071578063e985e9c514610430578063eb685c4714610443578063f2fde38b14610456578063f4a0a5281461046957600080fd5b8063c457fb37146103ca578063c87b56dd146103ea578063d0def521146103fd578063e5afe3e61461041057600080fd5b80638da5cb5b116100de5780638da5cb5b1461038b57806395d89b411461039c578063a22cb465146103a4578063b88d4fde146103b757600080fd5b806370a082311461034e578063715018a61461036157806375794a3c1461027a5780638546d0021461036957600080fd5b806322e669d31161018757806355f804b31161015657806355f804b3146103175780636352211e1461032a5780636817c76c1461033d5780636f9fb98a1461034657600080fd5b806322e669d31461029f57806323b872dd146102c657806342842e0e146102d95780634f558e79146102ec57600080fd5b8063081812fc116101c3578063081812fc1461023c578063095ea7b31461026757806318160ddd1461027a578063185385431461028c57600080fd5b806301ffc9a7146101ea5780630571ebb91461021257806306fdde0314610227575b600080fd5b6101fd6101f8366004611d9f565b61047c565b60405190151581526020015b60405180910390f35b610225610220366004611dbc565b61048d565b005b61022f610653565b6040516102099190611e25565b61024f61024a366004611dbc565b6106e5565b6040516001600160a01b039091168152602001610209565b610225610275366004611e54565b61070e565b6008545b604051908152602001610209565b61022561029a366004611e7e565b61071d565b61024f7f000000000000000000000000000000000000000000000000000000000000000081565b6102256102d4366004611eb3565b610a29565b6102256102e7366004611eb3565b610ab4565b6101fd6102fa366004611dbc565b6000908152600260205260409020546001600160a01b0316151590565b610225610325366004611f8b565b610ad4565b61024f610338366004611dbc565b610ae8565b61027e600a5481565b61027e610af3565b61027e61035c366004611fc0565b610b83565b610225610bcb565b6101fd610377366004611dbc565b6000908152600b6020526040902054151590565b6007546001600160a01b031661024f565b61022f610bdf565b6102256103b2366004611fe9565b610bee565b6102256103c5366004612020565b610bf9565b61027e6103d8366004611dbc565b6000908152600b602052604090205490565b61022f6103f8366004611dbc565b610c11565b61027e61040b36600461209c565b610c1c565b61027e61041e366004611dbc565b600b6020526000908152604090205481565b6101fd61043e3660046120ea565b61106b565b61022561045136600461211d565b611099565b610225610464366004611fc0565b611156565b610225610477366004611dbc565b611191565b6000610487826111d4565b92915050565b6104956111f9565b6040516370a0823160e01b815230600482015281907f00000000000000000000000000000000000000000000000000000000000000006001600160a01b0316906370a0823190602401602060405180830381865afa1580156104fb573d6000803e3d6000fd5b505050506040513d601f19601f8201168201806040525081019061051f919061213f565b10156105825760405162461bcd60e51b815260206004820152602760248201527f4d757369634e46543a20696e73756666696369656e7420636f6e74726163742060448201526662616c616e636560c81b60648201526084015b60405180910390fd5b7f00000000000000000000000000000000000000000000000000000000000000006001600160a01b031663a9059cbb6105c36007546001600160a01b031690565b6040516001600160e01b031960e084901b1681526001600160a01b039091166004820152602481018490526044016020604051808303816000875af1158015610610573d6000803e3d6000fd5b505050506040513d601f19601f820116820180604052508101906106349190612158565b6106505760405162461bcd60e51b815260040161057990612175565b50565b606060008054610662906121ac565b80601f016020809104026020016040519081016040528092919081815260200182805461068e906121ac565b80156106db5780601f106106b0576101008083540402835291602001916106db565b820191906000526020600020905b8154815290600101906020018083116106be57829003601f168201915b5050505050905090565b60006106f082611226565b506000828152600460205260409020546001600160a01b0316610487565b61071982823361125f565b5050565b6000838152600260205260409020546001600160a01b03166107815760405162461bcd60e51b815260206004820152601e60248201527f4d757369634e46543a20746f6b656e20646f6573206e6f7420657869737400006044820152606401610579565b6000838152600b60205260409020546107dc5760405162461bcd60e51b815260206004820152601c60248201527f4d757369634e46543a20746f6b656e206e6f7420666f722073616c65000000006044820152606401610579565b6000838152600b602052604090205481101561083a5760405162461bcd60e51b815260206004820152601e60248201527f4d757369634e46543a20696e73756666696369656e74207061796d656e7400006044820152606401610579565b6001600160a01b0382166108905760405162461bcd60e51b815260206004820152601f60248201527f4d757369634e46543a20696e76616c69642062757965722061646472657373006044820152606401610579565b600061089b84610ae8565b9050826001600160a01b0316816001600160a01b0316036108fe5760405162461bcd60e51b815260206004820152601e60248201527f4d757369634e46543a2063616e6e6f7420627579206f776e20746f6b656e00006044820152606401610579565b6000848152600b6020526040908190205490516323b872dd60e01b81526001600160a01b038581166004830152838116602483015260448201929092527f0000000000000000000000000000000000000000000000000000000000000000909116906323b872dd906064016020604051808303816000875af1158015610988573d6000803e3d6000fd5b505050506040513d601f19601f820116820180604052508101906109ac9190612158565b6109c85760405162461bcd60e51b815260040161057990612175565b6109d381848661126c565b6000848152600b602090815260408083208390555191825285916001600160a01b038616917f01ff821e9def963c805dc6fcef2e527b0a7075c952cdc05765e9e30238e6a36c910160405180910390a350505050565b6001600160a01b038216610a5357604051633250574960e11b815260006004820152602401610579565b6000610a6083833361131c565b9050836001600160a01b0316816001600160a01b031614610aae576040516364283d7b60e01b81526001600160a01b0380861660048301526024820184905282166044820152606401610579565b50505050565b610acf83838360405180602001604052806000815250610bf9565b505050565b610adc6111f9565b6009610719828261222e565b600061048782611226565b6040516370a0823160e01b81523060048201526000907f00000000000000000000000000000000000000000000000000000000000000006001600160a01b0316906370a0823190602401602060405180830381865afa158015610b5a573d6000803e3d6000fd5b505050506040513d601f19601f82011682018060405250810190610b7e919061213f565b905090565b60006001600160a01b038216610baf576040516322718ad960e21b815260006004820152602401610579565b506001600160a01b031660009081526003602052604090205490565b610bd36111f9565b610bdd6000611415565b565b606060018054610662906121ac565b610719338383611467565b610c04848484610a29565b610aae3385858585611506565b606061048782611631565b60006001600160a01b038316610c825760405162461bcd60e51b815260206004820152602560248201527f4d757369634e46543a2063616e6e6f74206d696e7420746f207a65726f206164604482015264647265737360d81b6064820152608401610579565b6000825111610cde5760405162461bcd60e51b815260206004820152602260248201527f4d757369634e46543a20746f6b656e5552492063616e6e6f7420626520656d70604482015261747960f01b6064820152608401610579565b610ce782611735565b610d695760405162461bcd60e51b815260206004820152604760248201527f4d757369634e46543a20746f6b656e555249206d75737420626520612076616c60448201527f69642055524920287475736b792d77616c7275733a2f2f2e2e2e206f7220646160648201526674613a2e2e2e2960c81b608482015260a401610579565b600a546040516370a0823160e01b81523360048201527f00000000000000000000000000000000000000000000000000000000000000006001600160a01b0316906370a0823190602401602060405180830381865afa158015610dd0573d6000803e3d6000fd5b505050506040513d601f19601f82011682018060405250810190610df4919061213f565b1015610e4e5760405162461bcd60e51b8152602060048201526024808201527f4d757369634e46543a20696e73756666696369656e742050595553442062616c604482015263616e636560e01b6064820152608401610579565b600a54604051636eb1769f60e11b81523360048201523060248201527f00000000000000000000000000000000000000000000000000000000000000006001600160a01b03169063dd62ed3e90604401602060405180830381865afa158015610ebb573d6000803e3d6000fd5b505050506040513d601f19601f82011682018060405250810190610edf919061213f565b1015610f3c5760405162461bcd60e51b815260206004820152602660248201527f4d757369634e46543a20696e73756666696369656e7420505955534420616c6c6044820152656f77616e636560d01b6064820152608401610579565b600a546040516323b872dd60e01b815233600482015230602482015260448101919091527f00000000000000000000000000000000000000000000000000000000000000006001600160a01b0316906323b872dd906064016020604051808303816000875af1158015610fb3573d6000803e3d6000fd5b505050506040513d601f19601f82011682018060405250810190610fd79190612158565b610ff35760405162461bcd60e51b815260040161057990612175565b600880549081906000611005836122ee565b919050555061101484826118a3565b61101e81846118bd565b80846001600160a01b03167f08281f2426b9db5f2f1a473af66b635cb422b3e4ee0886897a796ab9911cf88585600a5460405161105c929190612315565b60405180910390a39392505050565b6001600160a01b03918216600090815260056020908152604080832093909416825291909152205460ff1690565b6110a16111f9565b6000828152600260205260409020546001600160a01b03166111055760405162461bcd60e51b815260206004820152601e60248201527f4d757369634e46543a20746f6b656e20646f6573206e6f7420657869737400006044820152606401610579565b6000828152600b6020526040908190208290555182907fa0f1665b7b659537b52deec61ea64d134a3bccda74c7f4e79f2246e7a8187a8a9061114a9084815260200190565b60405180910390a25050565b61115e6111f9565b6001600160a01b03811661118857604051631e4fbdf760e01b815260006004820152602401610579565b61065081611415565b6111996111f9565b600a8190556040518181527f525b762709cc2a983aec5ccdfd807a061f993c91090b5bcd7da92ca254976aaa9060200160405180910390a150565b60006001600160e01b03198216632483248360e11b148061048757506104878261190d565b6007546001600160a01b03163314610bdd5760405163118cdaa760e01b8152336004820152602401610579565b6000818152600260205260408120546001600160a01b03168061048757604051637e27328960e01b815260048101849052602401610579565b610acf838383600161195d565b6001600160a01b03821661129657604051633250574960e11b815260006004820152602401610579565b60006112a48383600061131c565b90506001600160a01b0381166112d057604051637e27328960e01b815260048101839052602401610579565b836001600160a01b0316816001600160a01b031614610aae576040516364283d7b60e01b81526001600160a01b0380861660048301526024820184905282166044820152606401610579565b6000828152600260205260408120546001600160a01b039081169083161561134957611349818486611a63565b6001600160a01b038116156113875761136660008560008061195d565b6001600160a01b038116600090815260036020526040902080546000190190555b6001600160a01b038516156113b6576001600160a01b0385166000908152600360205260409020805460010190555b60008481526002602052604080822080546001600160a01b0319166001600160a01b0389811691821790925591518793918516917fddf252ad1be2c89b69c2b068fc378daa952ba7f163c4a11628f55a4df523b3ef91a4949350505050565b600780546001600160a01b038381166001600160a01b0319831681179093556040519116919082907f8be0079c531659141344cd1fd0a4f28419497f9722a3daafe3b4186f6b6457e090600090a35050565b6001600160a01b03821661149957604051630b61174360e31b81526001600160a01b0383166004820152602401610579565b6001600160a01b03838116600081815260056020908152604080832094871680845294825291829020805460ff191686151590811790915591519182527f17307eab39ab6107e8899845ad3d59bd9653f200f220920489ca2b5937696c31910160405180910390a3505050565b6001600160a01b0383163b1561162a57604051630a85bd0160e11b81526001600160a01b0384169063150b7a0290611548908890889087908790600401612337565b6020604051808303816000875af1925050508015611583575060408051601f3d908101601f1916820190925261158091810190612374565b60015b6115ec573d8080156115b1576040519150601f19603f3d011682016040523d82523d6000602084013e6115b6565b606091505b5080516000036115e457604051633250574960e11b81526001600160a01b0385166004820152602401610579565b805160208201fd5b6001600160e01b03198116630a85bd0160e11b1461162857604051633250574960e11b81526001600160a01b0385166004820152602401610579565b505b5050505050565b606061163c82611226565b5060008281526006602052604081208054611656906121ac565b80601f0160208091040260200160405190810160405280929190818152602001828054611682906121ac565b80156116cf5780601f106116a4576101008083540402835291602001916116cf565b820191906000526020600020905b8154815290600101906020018083116116b257829003601f168201915b5050505050905060006116e0611ac7565b905080516000036116f2575092915050565b81511561172457808260405160200161170c929190612391565b60405160208183030381529060405292505050919050565b61172d84611ad6565b949350505050565b60008082905060058151101561174e5750600092915050565b600f8151106117fe5760408051808201909152600f81526e7475736b792d77616c7275733a2f2f60881b6020820152600160005b82518110156117e95782818151811061179d5761179d6123c0565b602001015160f81c60f81b6001600160f81b0319168482815181106117c4576117c46123c0565b01602001516001600160f81b031916146117e157600091506117e9565b600101611782565b5080156117fb57506001949350505050565b50505b600581511061189a576040805180820190915260058152643230ba309d60d91b602082015260005b815181101561188f57818181518110611841576118416123c0565b602001015160f81c60f81b6001600160f81b031916838281518110611868576118686123c0565b01602001516001600160f81b0319161461188757506000949350505050565b600101611826565b506001949350505050565b50600092915050565b610719828260405180602001604052806000815250611b3e565b60008281526006602052604090206118d5828261222e565b506040518281527ff8e1a15aba9398e019f0b49df1a4fde98ee17ae345cb5f6b5e2c27f5033e8ce79060200160405180910390a15050565b60006001600160e01b031982166380ac58cd60e01b148061193e57506001600160e01b03198216635b5e139f60e01b145b8061048757506301ffc9a760e01b6001600160e01b0319831614610487565b808061197157506001600160a01b03821615155b15611a3357600061198184611226565b90506001600160a01b038316158015906119ad5750826001600160a01b0316816001600160a01b031614155b80156119c057506119be818461106b565b155b156119e95760405163a9fbf51f60e01b81526001600160a01b0384166004820152602401610579565b8115611a315783856001600160a01b0316826001600160a01b03167f8c5be1e5ebec7d5bd14f71427d1e84f3dd0314c0f7b2291e5b200ac8c7c3b92560405160405180910390a45b505b5050600090815260046020526040902080546001600160a01b0319166001600160a01b0392909216919091179055565b611a6e838383611b56565b610acf576001600160a01b038316611a9c57604051637e27328960e01b815260048101829052602401610579565b60405163177e802f60e01b81526001600160a01b038316600482015260248101829052604401610579565b606060098054610662906121ac565b6060611ae182611226565b506000611aec611ac7565b90506000815111611b0c5760405180602001604052806000815250611b37565b80611b1684611bb9565b604051602001611b27929190612391565b6040516020818303038152906040525b9392505050565b611b488383611c4c565b610acf336000858585611506565b60006001600160a01b0383161580159061172d5750826001600160a01b0316846001600160a01b03161480611b905750611b90848461106b565b8061172d5750506000908152600460205260409020546001600160a01b03908116911614919050565b60606000611bc683611cb1565b600101905060008167ffffffffffffffff811115611be657611be6611edf565b6040519080825280601f01601f191660200182016040528015611c10576020820181803683370190505b5090508181016020015b600019016f181899199a1a9b1b9c1cb0b131b232b360811b600a86061a8153600a8504945084611c1a57509392505050565b6001600160a01b038216611c7657604051633250574960e11b815260006004820152602401610579565b6000611c848383600061131c565b90506001600160a01b03811615610acf576040516339e3563760e11b815260006004820152602401610579565b60008072184f03e93ff9f4daa797ed6e38ed64bf6a1f0160401b8310611cf05772184f03e93ff9f4daa797ed6e38ed64bf6a1f0160401b830492506040015b6d04ee2d6d415b85acef81000000008310611d1c576d04ee2d6d415b85acef8100000000830492506020015b662386f26fc100008310611d3a57662386f26fc10000830492506010015b6305f5e1008310611d52576305f5e100830492506008015b6127108310611d6657612710830492506004015b60648310611d78576064830492506002015b600a83106104875760010192915050565b6001600160e01b03198116811461065057600080fd5b600060208284031215611db157600080fd5b8135611b3781611d89565b600060208284031215611dce57600080fd5b5035919050565b60005b83811015611df0578181015183820152602001611dd8565b50506000910152565b60008151808452611e11816020860160208601611dd5565b601f01601f19169290920160200192915050565b602081526000611b376020830184611df9565b80356001600160a01b0381168114611e4f57600080fd5b919050565b60008060408385031215611e6757600080fd5b611e7083611e38565b946020939093013593505050565b600080600060608486031215611e9357600080fd5b83359250611ea360208501611e38565b9150604084013590509250925092565b600080600060608486031215611ec857600080fd5b611ed184611e38565b9250611ea360208501611e38565b634e487b7160e01b600052604160045260246000fd5b600067ffffffffffffffff80841115611f1057611f10611edf565b604051601f8501601f19908116603f01168101908282118183101715611f3857611f38611edf565b81604052809350858152868686011115611f5157600080fd5b858560208301376000602087830101525050509392505050565b600082601f830112611f7c57600080fd5b611b3783833560208501611ef5565b600060208284031215611f9d57600080fd5b813567ffffffffffffffff811115611fb457600080fd5b61172d84828501611f6b565b600060208284031215611fd257600080fd5b611b3782611e38565b801515811461065057600080fd5b60008060408385031215611ffc57600080fd5b61200583611e38565b9150602083013561201581611fdb565b809150509250929050565b6000806000806080858703121561203657600080fd5b61203f85611e38565b935061204d60208601611e38565b925060408501359150606085013567ffffffffffffffff81111561207057600080fd5b8501601f8101871361208157600080fd5b61209087823560208401611ef5565b91505092959194509250565b600080604083850312156120af57600080fd5b6120b883611e38565b9150602083013567ffffffffffffffff8111156120d457600080fd5b6120e085828601611f6b565b9150509250929050565b600080604083850312156120fd57600080fd5b61210683611e38565b915061211460208401611e38565b90509250929050565b6000806040838503121561213057600080fd5b50508035926020909101359150565b60006020828403121561215157600080fd5b5051919050565b60006020828403121561216a57600080fd5b8151611b3781611fdb565b6020808252601f908201527f4d757369634e46543a205059555344207472616e73666572206661696c656400604082015260600190565b600181811c908216806121c057607f821691505b6020821081036121e057634e487b7160e01b600052602260045260246000fd5b50919050565b601f821115610acf576000816000526020600020601f850160051c8101602086101561220f5750805b601f850160051c820191505b818110156116285782815560010161221b565b815167ffffffffffffffff81111561224857612248611edf565b61225c8161225684546121ac565b846121e6565b602080601f83116001811461229157600084156122795750858301515b600019600386901b1c1916600185901b178555611628565b600085815260208120601f198616915b828110156122c0578886015182559484019460019091019084016122a1565b50858210156122de5787850151600019600388901b60f8161c191681555b5050505050600190811b01905550565b60006001820161230e57634e487b7160e01b600052601160045260246000fd5b5060010190565b6040815260006123286040830185611df9565b90508260208301529392505050565b6001600160a01b038581168252841660208201526040810183905260806060820181905260009061236a90830184611df9565b9695505050505050565b60006020828403121561238657600080fd5b8151611b3781611d89565b600083516123a3818460208801611dd5565b8351908301906123b7818360208801611dd5565b01949350505050565b634e487b7160e01b600052603260045260246000fdfea26469706673582212207b29c243f500ea835e5e8538b653fab0b05efd7948e0496e5618772bc8f4623e64736f6c63430008180033",
  "linkReferences": {},
  "deployedLinkReferences": {}
}