{
  "_format": "hh-sol-artifact-1",
  "contractName": "MusicNFT",
  "sourceName": "contracts/MusicNFT.sol",
  "abi": [
    {
      "inputs": [
        {
          "internalType": "string",
          "name": "name",
          "type": "string"
        },
        {
          "internalType": "string",
          "name": "symbol",
          "type": "string"
        },
        {
          "internalType": "string",
          "name": "baseTokenURI",
          "type": "string"
        },
        {
          "internalType": "address",
          "name": "_mockPYUSD",
          "type": "address"
        }
      ],
      "stateMutability": "nonpayable",
      "type": "constructor"
    },
    {
      "inputs": [
        {
          "internalType": "address",
          "name": "sender",
          "type": "address"
        },
        {
          "internalType": "uint256",
          "name": "tokenId",
          "type": "uint256"
        },
        {
          "internalType": "address",
          "name": "owner",
          "type": "address"
        }
      ],
      "name": "ERC721IncorrectOwner",
      "type": "error"
    },
    {
      "inputs": [
        {
          "internalType": "address",
          "name": "operator",
          "type": "address"
        },
        {
          "internalType": "uint256",
          "name": "tokenId",
          "type": "uint256"
        }
      ],
      "name": "ERC721InsufficientApproval",
      "type": "error"
    },
    {
      "inputs": [
        {
          "internalType": "address",
          "name": "approver",
          "type": "address"
        }
      ],
      "name": "ERC721InvalidApprover",
      "type": "error"
    },
    {
      "inputs": [
        {
          "internalType": "address",
          "name": "operator",
          "type": "address"
        }
      ],
      "name": "ERC721InvalidOperator",
      "type": "error"
    },
    {
      "inputs": [
        {
          "internalType": "address",
          "name": "owner",
          "type": "address"
        }
      ],
      "name": "ERC721InvalidOwner",
      "type": "error"
    },
    {
      "inputs": [
        {
          "internalType": "address",
          "name": "receiver",
          "type": "address"
        }
      ],
      "name": "ERC721InvalidReceiver",
      "type": "error"
    },
    {
      "inputs": [
        {
          "internalType": "address",
          "name": "sender",
          "type": "address"
        }
      ],
      "name": "ERC721InvalidSender",
      "type": "error"
    },
    {
      "inputs": [
        {
          "internalType": "uint256",
          "name": "tokenId",
          "type": "uint256"
        }
      ],
      "name": "ERC721NonexistentToken",
      "type": "error"
    },
    {
      "inputs": [
        {
          "internalType": "address",
          "name": "owner",
          "type": "address"
        }
      ],
      "name": "OwnableInvalidOwner",
      "type": "error"
    },
    {
      "inputs": [
        {
          "internalType": "address",
          "name": "account",
          "type": "address"
        }
      ],
      "name": "OwnableUnauthorizedAccount",
      "type": "error"
    },
    {
      "anonymous": false,
      "inputs": [
        {
          "indexed": true,
          "internalType": "address",
          "name": "owner",
          "type": "address"
        },
        {
          "indexed": true,
          "internalType": "address",
          "name": "approved",
          "type": "address"
        },
        {
          "indexed": true,
          "internalType": "uint256",
          "name": "tokenId",
          "type": "uint256"
        }
      ],
      "name": "Approval",
      "type": "event"
    },
    {
      "anonymous": false,
      "inputs": [
        {
          "indexed": true,
          "internalType": "address",
          "name": "owner",
          "type": "address"
        },
        {
          "indexed": true,
          "internalType": "address",
          "name": "operator",
          "type": "address"
        },
        {
          "indexed": false,
          "internalType": "bool",
          "name": "approved",
          "type": "bool"
        }
      ],
      "name": "ApprovalForAll",
      "type": "event"
    },
    {
      "anonymous": false,
      "inputs": [
        {
          "indexed": false,
          "internalType": "uint256",
          "name": "_fromTokenId",
          "type": "uint256"
        },
        {
          "indexed": false,
          "internalType": "uint256",
          "name": "_toTokenId",
          "type": "uint256"
        }
      ],
      "name": "BatchMetadataUpdate",
      "type": "event"
    },
    {
      "anonymous": false,
      "inputs": [
        {
          "indexed": false,
          "internalType": "uint256",
          "name": "_tokenId",
          "type": "uint256"
        }
      ],
      "name": "MetadataUpdate",
      "type": "event"
    },
    {
      "anonymous": false,
      "inputs": [
        {
          "indexed": true,
          "internalType": "address",
          "name": "to",
          "type": "address"
        },
        {
          "indexed": true,
          "internalType": "uint256",
          "name": "tokenId",
          "type": "uint256"
        },
        {
          "indexed": false,
          "internalType": "string",
          "name": "tokenURI",
          "type": "string"
        }
      ],
      "name": "MusicMinted",
      "type": "event"
    },
    {
      "anonymous": false,
      "inputs": [
        {
          "indexed": true,
          "internalType": "address",
          "name": "buyer",
          "type": "address"
        },
        {
          "indexed": true,
          "internalType": "uint256",
          "name": "tokenId",
          "type": "uint256"
        },
        {
          "indexed": false,
          "internalType": "uint256",
          "name": "price",
          "type": "uint256"
        }
      ],
      "name": "MusicPurchased",
      "type": "event"
    },
    {
      "anonymous": false,
      "inputs": [
        {
          "indexed": true,
          "internalType": "address",
          "name": "previousOwner",
          "type": "address"
        },
        {
          "indexed": true,
          "internalType": "address",
          "name": "newOwner",
          "type": "address"
        }
      ],
      "name": "OwnershipTransferred",
      "type": "event"
    },
    {
      "anonymous": false,
      "inputs": [
        {
          "indexed": true,
          "internalType": "uint256",
          "name": "tokenId",
          "type": "uint256"
        },
        {
          "indexed": false,
          "internalType": "uint256",
          "name": "price",
          "type": "uint256"
        }
      ],
      "name": "PriceSet",
      "type": "event"
    },
    {
      "anonymous": false,
      "inputs": [
        {
          "indexed": true,
          "internalType": "address",
          "name": "from",
          "type": "address"
        },
        {
          "indexed": true,
          "internalType": "address",
          "name": "to",
          "type": "address"
        },
        {
          "indexed": true,
          "internalType": "uint256",
          "name": "tokenId",
          "type": "uint256"
        }
      ],
      "name": "Transfer",
      "type": "event"
    },
    {
      "inputs": [
        {
          "internalType": "address",
          "name": "to",
          "type": "address"
        },
        {
          "internalType": "uint256",
          "name": "tokenId",
          "type": "uint256"
        }
      ],
      "name": "approve",
      "outputs": [],
      "stateMutability": "nonpayable",
      "type": "function"
    },
    {
      "inputs": [
        {
          "internalType": "address",
          "name": "owner",
          "type": "address"
        }
      ],
      "name": "balanceOf",
      "outputs": [
        {
          "internalType": "uint256",
          "name": "",
          "type": "uint256"
        }
      ],
      "stateMutability": "view",
      "type": "function"
    },
    {
      "inputs": [
        {
          "internalType": "uint256",
          "name": "tokenId",
          "type": "uint256"
        },
        {
          "internalType": "address",
          "name": "buyer",
          "type": "address"
        },
        {
          "internalType": "uint256",
          "name": "amount",
          "type": "uint256"
        }
      ],
      "name": "buyNFT",
      "outputs": [],
      "stateMutability": "nonpayable",
      "type": "function"
    },
    {
      "inputs": [
        {
          "internalType": "uint256",
          "name": "tokenId",
          "type": "uint256"
        }
      ],
      "name": "exists",
      "outputs": [
        {
          "internalType": "bool",
          "name": "",
          "type": "bool"
        }
      ],
      "stateMutability": "view",
      "type": "function"
    },
    {
      "inputs": [
        {
          "internalType": "uint256",
          "name": "tokenId",
          "type": "uint256"
        }
      ],
      "name": "getApproved",
      "outputs": [
        {
          "internalType": "address",
          "name": "",
          "type": "address"
        }
      ],
      "stateMutability": "view",
      "type": "function"
    },
    {
      "inputs": [
        {
          "internalType": "uint256",
          "name": "tokenId",
          "type": "uint256"
        }
      ],
      "name": "getTokenPrice",
      "outputs": [
        {
          "internalType": "uint256",
          "name": "",
          "type": "uint256"
        }
      ],
      "stateMutability": "view",
      "type": "function"
    },
    {
      "inputs": [
        {
          "internalType": "address",
          "name": "owner",
          "type": "address"
        },
        {
          "internalType": "address",
          "name": "operator",
          "type": "address"
        }
      ],
      "name": "isApprovedForAll",
      "outputs": [
        {
          "internalType": "bool",
          "name": "",
          "type": "bool"
        }
      ],
      "stateMutability": "view",
      "type": "function"
    },
    {
      "inputs": [
        {
          "internalType": "uint256",
          "name": "tokenId",
          "type": "uint256"
        }
      ],
      "name": "isForSale",
      "outputs": [
        {
          "internalType": "bool",
          "name": "",
          "type": "bool"
        }
      ],
      "stateMutability": "view",
      "type": "function"
    },
    {
      "inputs": [
        {
          "internalType": "address",
          "name": "to",
          "type": "address"
        },
        {
          "internalType": "string",
          "name": "tokenUriString",
          "type": "string"
        }
      ],
      "name": "mint",
      "outputs": [
        {
          "internalType": "uint256",
          "name": "",
          "type": "uint256"
        }
      ],
      "stateMutability": "nonpayable",
      "type": "function"
    },
    {
      "inputs": [],
      "name": "mockPYUSD",
      "outputs": [
        {
          "internalType": "contract IERC20",
          "name": "",
          "type": "address"
        }
      ],
      "stateMutability": "view",
      "type": "function"
    },
    {
      "inputs": [],
      "name": "name",
      "outputs": [
        {
          "internalType": "string",
          "name": "",
          "type": "string"
        }
      ],
      "stateMutability": "view",
      "type": "function"
    },
    {
      "inputs": [],
      "name": "nextTokenId",
      "outputs": [
        {
          "internalType": "uint256",
          "name": "",
          "type": "uint256"
        }
      ],
      "stateMutability": "view",
      "type": "function"
    },
    {
      "inputs": [],
      "name": "owner",
      "outputs": [
        {
          "internalType": "address",
          "name": "",
          "type": "address"
        }
      ],
      "stateMutability": "view",
      "type": "function"
    },
    {
      "inputs": [
        {
          "internalType": "uint256",
          "name": "tokenId",
          "type": "uint256"
        }
      ],
      "name": "ownerOf",
      "outputs": [
        {
          "internalType": "address",
          "name": "",
          "type": "address"
        }
      ],
      "stateMutability": "view",
      "type": "function"
    },
    {
      "inputs": [],
      "name": "renounceOwnership",
      "outputs": [],
      "stateMutability": "nonpayable",
      "type": "function"
    },
    {
      "inputs": [
        {
          "internalType": "address",
          "name": "from",
          "type": "address"
        },
        {
          "internalType": "address",
          "name": "to",
          "type": "address"
        },
        {
          "internalType": "uint256",
          "name": "tokenId",
          "type": "uint256"
        }
      ],
      "name": "safeTransferFrom",
      "outputs": [],
      "stateMutability": "nonpayable",
      "type": "function"
    },
    {
      "inputs": [
        {
          "internalType": "address",
          "name": "from",
          "type": "address"
        },
        {
          "internalType": "address",
          "name": "to",
          "type": "address"
        },
        {
          "internalType": "uint256",
          "name": "tokenId",
          "type": "uint256"
        },
        {
          "internalType": "bytes",
          "name": "data",
          "type": "bytes"
        }
      ],
      "name": "safeTransferFrom",
      "outputs": [],
      "stateMutability": "nonpayable",
      "type": "function"
    },
    {
      "inputs": [
        {
          "internalType": "address",
          "name": "operator",
          "type": "address"
        },
        {
          "internalType": "bool",
          "name": "approved",
          "type": "bool"
        }
      ],
      "name": "setApprovalForAll",
      "outputs": [],
      "stateMutability": "nonpayable",
      "type": "function"
    },
    {
      "inputs": [
        {
          "internalType": "string",
          "name": "baseURI",
          "type": "string"
        }
      ],
      "name": "setBaseURI",
      "outputs": [],
      "stateMutability": "nonpayable",
      "type": "function"
    },
    {
      "inputs": [
        {
          "internalType": "uint256",
          "name": "tokenId",
          "type": "uint256"
        },
        {
          "internalType": "uint256",
          "name": "price",
          "type": "uint256"
        }
      ],
      "name": "setTokenPrice",
      "outputs": [],
      "stateMutability": "nonpayable",
      "type": "function"
    },
    {
      "inputs": [
        {
          "internalType": "bytes4",
          "name": "interfaceId",
          "type": "bytes4"
        }
      ],
      "name": "supportsInterface",
      "outputs": [
        {
          "internalType": "bool",
          "name": "",
          "type": "bool"
        }
      ],
      "stateMutability": "view",
      "type": "function"
    },
    {
      "inputs": [],
      "name": "symbol",
      "outputs": [
        {
          "internalType": "string",
          "name": "",
          "type": "string"
        }
      ],
      "stateMutability": "view",
      "type": "function"
    },
    {
      "inputs": [
        {
          "internalType": "uint256",
          "name": "",
          "type": "uint256"
        }
      ],
      "name": "tokenPrices",
      "outputs": [
        {
          "internalType": "uint256",
          "name": "",
          "type": "uint256"
        }
      ],
      "stateMutability": "view",
      "type": "function"
    },
    {
      "inputs": [
        {
          "internalType": "uint256",
          "name": "tokenId",
          "type": "uint256"
        }
      ],
      "name": "tokenURI",
      "outputs": [
        {
          "internalType": "string",
          "name": "",
          "type": "string"
        }
      ],
      "stateMutability": "view",
      "type": "function"
    },
    {
      "inputs": [],
      "name": "totalSupply",
      "outputs": [
        {
          "internalType": "uint256",
          "name": "",
          "type": "uint256"
        }
      ],
      "stateMutability": "view",
      "type": "function"
    },
    {
      "inputs": [
        {
          "internalType": "address",
          "name": "from",
          "type": "address"
        },
        {
          "internalType": "address",
          "name": "to",
          "type": "address"
        },
        {
          "internalType": "uint256",
          "name": "tokenId",
          "type": "uint256"
        }
      ],
      "name": "transferFrom",
      "outputs": [],
      "stateMutability": "nonpayable",
      "type": "function"
    },
    {
      "inputs": [
        {
          "internalType": "address",
          "name": "newOwner",
          "type": "address"
        }
      ],
      "name": "transferOwnership",
      "outputs": [],
      "stateMutability": "nonpayable",
      "type": "function"
    }
  ],
  "bytecode": "0x60a06040523480156200001157600080fd5b50604051620021ac380380620021ac8339810160408190526200003491620001d1565b338484600062000045838262000315565b50600162000054828262000315565b5050506001600160a01b0381166200008657604051631e4fbdf760e01b81526000600482015260240160405180910390fd5b6200009181620000b7565b506009620000a0838262000315565b506001600160a01b031660805250620003e1915050565b600780546001600160a01b038381166001600160a01b0319831681179093556040519116919082907f8be0079c531659141344cd1fd0a4f28419497f9722a3daafe3b4186f6b6457e090600090a35050565b634e487b7160e01b600052604160045260246000fd5b600082601f8301126200013157600080fd5b81516001600160401b03808211156200014e576200014e62000109565b604051601f8301601f19908116603f0116810190828211818310171562000179576200017962000109565b81604052838152602092508660208588010111156200019757600080fd5b600091505b83821015620001bb57858201830151818301840152908201906200019c565b6000602085830101528094505050505092915050565b60008060008060808587031215620001e857600080fd5b84516001600160401b03808211156200020057600080fd5b6200020e888389016200011f565b955060208701519150808211156200022557600080fd5b62000233888389016200011f565b945060408701519150808211156200024a57600080fd5b5062000259878288016200011f565b606087015190935090506001600160a01b03811681146200027957600080fd5b939692955090935050565b600181811c908216806200029957607f821691505b602082108103620002ba57634e487b7160e01b600052602260045260246000fd5b50919050565b601f82111562000310576000816000526020600020601f850160051c81016020861015620002eb5750805b601f850160051c820191505b818110156200030c57828155600101620002f7565b5050505b505050565b81516001600160401b0381111562000331576200033162000109565b620003498162000342845462000284565b84620002c0565b602080601f831160018114620003815760008415620003685750858301515b600019600386901b1c1916600185901b1785556200030c565b600085815260208120601f198616915b82811015620003b25788860151825594840194600190910190840162000391565b5085821015620003d15787850151600019600388901b60f8161c191681555b5050505050600190811b01905550565b608051611da8620004046000396000818161034801526107090152611da86000f3fe608060405234801561001057600080fd5b50600436106101a95760003560e01c806375794a3c116100f9578063c457fb3711610097578063e5afe3e611610071578063e5afe3e6146103b0578063e985e9c5146103d0578063eb685c47146103e3578063f2fde38b146103f657600080fd5b8063c457fb371461036a578063c87b56dd1461038a578063d0def5211461039d57600080fd5b806395d89b41116100d357806395d89b4114610315578063a22cb4651461031d578063b88d4fde14610330578063c2acbf391461034357600080fd5b806375794a3c1461022b5780638546d002146102e25780638da5cb5b1461030457600080fd5b806323b872dd1161016657806355f804b31161014057806355f804b3146102a15780636352211e146102b457806370a08231146102c7578063715018a6146102da57600080fd5b806323b872dd1461025057806342842e0e146102635780634f558e791461027657600080fd5b806301ffc9a7146101ae57806306fdde03146101d6578063081812fc146101eb578063095ea7b31461021657806318160ddd1461022b578063185385431461023d575b600080fd5b6101c16101bc3660046117ad565b610409565b60405190151581526020015b60405180910390f35b6101de61041a565b6040516101cd919061181a565b6101fe6101f936600461182d565b6104ac565b6040516001600160a01b0390911681526020016101cd565b610229610224366004611862565b6104d5565b005b6008545b6040519081526020016101cd565b61022961024b36600461188c565b6104e4565b61022961025e3660046118c1565b610831565b6102296102713660046118c1565b6108bc565b6101c161028436600461182d565b6000908152600260205260409020546001600160a01b0316151590565b6102296102af366004611999565b6108dc565b6101fe6102c236600461182d565b6108f0565b61022f6102d53660046119ce565b6108fb565b610229610943565b6101c16102f036600461182d565b6000908152600a6020526040902054151590565b6007546001600160a01b03166101fe565b6101de610957565b61022961032b3660046119f7565b610966565b61022961033e366004611a2e565b610971565b6101fe7f000000000000000000000000000000000000000000000000000000000000000081565b61022f61037836600461182d565b6000908152600a602052604090205490565b6101de61039836600461182d565b610989565b61022f6103ab366004611aaa565b610994565b61022f6103be36600461182d565b600a6020526000908152604090205481565b6101c16103de366004611af8565b610b5e565b6102296103f1366004611b2b565b610b8c565b6102296104043660046119ce565b610c49565b600061041482610c87565b92915050565b60606000805461042990611b4d565b80601f016020809104026020016040519081016040528092919081815260200182805461045590611b4d565b80156104a25780601f10610477576101008083540402835291602001916104a2565b820191906000526020600020905b81548152906001019060200180831161048557829003601f168201915b5050505050905090565b60006104b782610cac565b506000828152600460205260409020546001600160a01b0316610414565b6104e0828233610ce5565b5050565b6000838152600260205260409020546001600160a01b031661054d5760405162461bcd60e51b815260206004820152601e60248201527f4d757369634e46543a20746f6b656e20646f6573206e6f74206578697374000060448201526064015b60405180910390fd5b6000838152600a60205260409020546105a85760405162461bcd60e51b815260206004820152601c60248201527f4d757369634e46543a20746f6b656e206e6f7420666f722073616c65000000006044820152606401610544565b6000838152600a60205260409020548110156106065760405162461bcd60e51b815260206004820152601e60248201527f4d757369634e46543a20696e73756666696369656e74207061796d656e7400006044820152606401610544565b6001600160a01b03821661065c5760405162461bcd60e51b815260206004820152601f60248201527f4d757369634e46543a20696e76616c69642062757965722061646472657373006044820152606401610544565b6000610667846108f0565b9050826001600160a01b0316816001600160a01b0316036106ca5760405162461bcd60e51b815260206004820152601e60248201527f4d757369634e46543a2063616e6e6f7420627579206f776e20746f6b656e00006044820152606401610544565b6000848152600a6020526040908190205490516323b872dd60e01b81526001600160a01b038581166004830152838116602483015260448201929092527f0000000000000000000000000000000000000000000000000000000000000000909116906323b872dd906064016020604051808303816000875af1158015610754573d6000803e3d6000fd5b505050506040513d601f19601f820116820180604052508101906107789190611b87565b6107d05760405162461bcd60e51b815260206004820152602360248201527f4d757369634e46543a204d6f636b5059555344207472616e73666572206661696044820152621b195960ea1b6064820152608401610544565b6107db818486610cf2565b6000848152600a602090815260408083208390555191825285916001600160a01b038616917f01ff821e9def963c805dc6fcef2e527b0a7075c952cdc05765e9e30238e6a36c910160405180910390a350505050565b6001600160a01b03821661085b57604051633250574960e11b815260006004820152602401610544565b6000610868838333610da2565b9050836001600160a01b0316816001600160a01b0316146108b6576040516364283d7b60e01b81526001600160a01b0380861660048301526024820184905282166044820152606401610544565b50505050565b6108d783838360405180602001604052806000815250610971565b505050565b6108e4610e9b565b60096104e08282611bec565b600061041482610cac565b60006001600160a01b038216610927576040516322718ad960e21b815260006004820152602401610544565b506001600160a01b031660009081526003602052604090205490565b61094b610e9b565b6109556000610ec8565b565b60606001805461042990611b4d565b6104e0338383610f1a565b61097c848484610831565b6108b63385858585610fb9565b6060610414826110e4565b600061099e610e9b565b6001600160a01b038316610a025760405162461bcd60e51b815260206004820152602560248201527f4d757369634e46543a2063616e6e6f74206d696e7420746f207a65726f206164604482015264647265737360d81b6064820152608401610544565b6000825111610a5e5760405162461bcd60e51b815260206004820152602260248201527f4d757369634e46543a20746f6b656e5552492063616e6e6f7420626520656d70604482015261747960f01b6064820152608401610544565b610a67826111e8565b610aea5760405162461bcd60e51b815260206004820152604860248201527f4d757369634e46543a20746f6b656e555249206d75737420626520612076616c60448201527f69642057616c7275732f5475736b792055524920287475736b792d77616c7275606482015267733a2f2f2e2e2e2960c01b608482015260a401610544565b600880549081906000610afc83611cac565b9190505550610b0b84826112b1565b610b1581846112cb565b80846001600160a01b03167f4b21d7dfc4bfa2a8f5ac21175b432260664059eb64cd19a8291b67d13fe147dc85604051610b4f919061181a565b60405180910390a39392505050565b6001600160a01b03918216600090815260056020908152604080832093909416825291909152205460ff1690565b610b94610e9b565b6000828152600260205260409020546001600160a01b0316610bf85760405162461bcd60e51b815260206004820152601e60248201527f4d757369634e46543a20746f6b656e20646f6573206e6f7420657869737400006044820152606401610544565b6000828152600a6020526040908190208290555182907fa0f1665b7b659537b52deec61ea64d134a3bccda74c7f4e79f2246e7a8187a8a90610c3d9084815260200190565b60405180910390a25050565b610c51610e9b565b6001600160a01b038116610c7b57604051631e4fbdf760e01b815260006004820152602401610544565b610c8481610ec8565b50565b60006001600160e01b03198216632483248360e11b148061041457506104148261131b565b6000818152600260205260408120546001600160a01b03168061041457604051637e27328960e01b815260048101849052602401610544565b6108d7838383600161136b565b6001600160a01b038216610d1c57604051633250574960e11b815260006004820152602401610544565b6000610d2a83836000610da2565b90506001600160a01b038116610d5657604051637e27328960e01b815260048101839052602401610544565b836001600160a01b0316816001600160a01b0316146108b6576040516364283d7b60e01b81526001600160a01b0380861660048301526024820184905282166044820152606401610544565b6000828152600260205260408120546001600160a01b0390811690831615610dcf57610dcf818486611471565b6001600160a01b03811615610e0d57610dec60008560008061136b565b6001600160a01b038116600090815260036020526040902080546000190190555b6001600160a01b03851615610e3c576001600160a01b0385166000908152600360205260409020805460010190555b60008481526002602052604080822080546001600160a01b0319166001600160a01b0389811691821790925591518793918516917fddf252ad1be2c89b69c2b068fc378daa952ba7f163c4a11628f55a4df523b3ef91a4949350505050565b6007546001600160a01b031633146109555760405163118cdaa760e01b8152336004820152602401610544565b600780546001600160a01b038381166001600160a01b0319831681179093556040519116919082907f8be0079c531659141344cd1fd0a4f28419497f9722a3daafe3b4186f6b6457e090600090a35050565b6001600160a01b038216610f4c57604051630b61174360e31b81526001600160a01b0383166004820152602401610544565b6001600160a01b03838116600081815260056020908152604080832094871680845294825291829020805460ff191686151590811790915591519182527f17307eab39ab6107e8899845ad3d59bd9653f200f220920489ca2b5937696c31910160405180910390a3505050565b6001600160a01b0383163b156110dd57604051630a85bd0160e11b81526001600160a01b0384169063150b7a0290610ffb908890889087908790600401611cd3565b6020604051808303816000875af1925050508015611036575060408051601f3d908101601f1916820190925261103391810190611d10565b60015b61109f573d808015611064576040519150601f19603f3d011682016040523d82523d6000602084013e611069565b606091505b50805160000361109757604051633250574960e11b81526001600160a01b0385166004820152602401610544565b805160208201fd5b6001600160e01b03198116630a85bd0160e11b146110db57604051633250574960e11b81526001600160a01b0385166004820152602401610544565b505b5050505050565b60606110ef82610cac565b506000828152600660205260408120805461110990611b4d565b80601f016020809104026020016040519081016040528092919081815260200182805461113590611b4d565b80156111825780601f1061115757610100808354040283529160200191611182565b820191906000526020600020905b81548152906001019060200180831161116557829003601f168201915b5050505050905060006111936114d5565b905080516000036111a5575092915050565b8151156111d75780826040516020016111bf929190611d2d565b60405160208183030381529060405292505050919050565b6111e0846114e4565b949350505050565b600080829050600f815110156112015750600092915050565b60408051808201909152600f8082526e7475736b792d77616c7275733a2f2f60881b60208301528251101561123a575060009392505050565b60005b81518110156112a65781818151811061125857611258611d5c565b602001015160f81c60f81b6001600160f81b03191683828151811061127f5761127f611d5c565b01602001516001600160f81b0319161461129e57506000949350505050565b60010161123d565b506001949350505050565b6104e082826040518060200160405280600081525061154c565b60008281526006602052604090206112e38282611bec565b506040518281527ff8e1a15aba9398e019f0b49df1a4fde98ee17ae345cb5f6b5e2c27f5033e8ce79060200160405180910390a15050565b60006001600160e01b031982166380ac58cd60e01b148061134c57506001600160e01b03198216635b5e139f60e01b145b8061041457506301ffc9a760e01b6001600160e01b0319831614610414565b808061137f57506001600160a01b03821615155b1561144157600061138f84610cac565b90506001600160a01b038316158015906113bb5750826001600160a01b0316816001600160a01b031614155b80156113ce57506113cc8184610b5e565b155b156113f75760405163a9fbf51f60e01b81526001600160a01b0384166004820152602401610544565b811561143f5783856001600160a01b0316826001600160a01b03167f8c5be1e5ebec7d5bd14f71427d1e84f3dd0314c0f7b2291e5b200ac8c7c3b92560405160405180910390a45b505b5050600090815260046020526040902080546001600160a01b0319166001600160a01b0392909216919091179055565b61147c838383611564565b6108d7576001600160a01b0383166114aa57604051637e27328960e01b815260048101829052602401610544565b60405163177e802f60e01b81526001600160a01b038316600482015260248101829052604401610544565b60606009805461042990611b4d565b60606114ef82610cac565b5060006114fa6114d5565b9050600081511161151a5760405180602001604052806000815250611545565b80611524846115c7565b604051602001611535929190611d2d565b6040516020818303038152906040525b9392505050565b611556838361165a565b6108d7336000858585610fb9565b60006001600160a01b038316158015906111e05750826001600160a01b0316846001600160a01b0316148061159e575061159e8484610b5e565b806111e05750506000908152600460205260409020546001600160a01b03908116911614919050565b606060006115d4836116bf565b600101905060008167ffffffffffffffff8111156115f4576115f46118ed565b6040519080825280601f01601f19166020018201604052801561161e576020820181803683370190505b5090508181016020015b600019016f181899199a1a9b1b9c1cb0b131b232b360811b600a86061a8153600a850494508461162857509392505050565b6001600160a01b03821661168457604051633250574960e11b815260006004820152602401610544565b600061169283836000610da2565b90506001600160a01b038116156108d7576040516339e3563760e11b815260006004820152602401610544565b60008072184f03e93ff9f4daa797ed6e38ed64bf6a1f0160401b83106116fe5772184f03e93ff9f4daa797ed6e38ed64bf6a1f0160401b830492506040015b6d04ee2d6d415b85acef8100000000831061172a576d04ee2d6d415b85acef8100000000830492506020015b662386f26fc10000831061174857662386f26fc10000830492506010015b6305f5e1008310611760576305f5e100830492506008015b612710831061177457612710830492506004015b60648310611786576064830492506002015b600a83106104145760010192915050565b6001600160e01b031981168114610c8457600080fd5b6000602082840312156117bf57600080fd5b813561154581611797565b60005b838110156117e55781810151838201526020016117cd565b50506000910152565b600081518084526118068160208601602086016117ca565b601f01601f19169290920160200192915050565b60208152600061154560208301846117ee565b60006020828403121561183f57600080fd5b5035919050565b80356001600160a01b038116811461185d57600080fd5b919050565b6000806040838503121561187557600080fd5b61187e83611846565b946020939093013593505050565b6000806000606084860312156118a157600080fd5b833592506118b160208501611846565b9150604084013590509250925092565b6000806000606084860312156118d657600080fd5b6118df84611846565b92506118b160208501611846565b634e487b7160e01b600052604160045260246000fd5b600067ffffffffffffffff8084111561191e5761191e6118ed565b604051601f8501601f19908116603f01168101908282118183101715611946576119466118ed565b8160405280935085815286868601111561195f57600080fd5b858560208301376000602087830101525050509392505050565b600082601f83011261198a57600080fd5b61154583833560208501611903565b6000602082840312156119ab57600080fd5b813567ffffffffffffffff8111156119c257600080fd5b6111e084828501611979565b6000602082840312156119e057600080fd5b61154582611846565b8015158114610c8457600080fd5b60008060408385031215611a0a57600080fd5b611a1383611846565b91506020830135611a23816119e9565b809150509250929050565b60008060008060808587031215611a4457600080fd5b611a4d85611846565b9350611a5b60208601611846565b925060408501359150606085013567ffffffffffffffff811115611a7e57600080fd5b8501601f81018713611a8f57600080fd5b611a9e87823560208401611903565b91505092959194509250565b60008060408385031215611abd57600080fd5b611ac683611846565b9150602083013567ffffffffffffffff811115611ae257600080fd5b611aee85828601611979565b9150509250929050565b60008060408385031215611b0b57600080fd5b611b1483611846565b9150611b2260208401611846565b90509250929050565b60008060408385031215611b3e57600080fd5b50508035926020909101359150565b600181811c90821680611b6157607f821691505b602082108103611b8157634e487b7160e01b600052602260045260246000fd5b50919050565b600060208284031215611b9957600080fd5b8151611545816119e9565b601f8211156108d7576000816000526020600020601f850160051c81016020861015611bcd5750805b601f850160051c820191505b818110156110db57828155600101611bd9565b815167ffffffffffffffff811115611c0657611c066118ed565b611c1a81611c148454611b4d565b84611ba4565b602080601f831160018114611c4f5760008415611c375750858301515b600019600386901b1c1916600185901b1785556110db565b600085815260208120601f198616915b82811015611c7e57888601518255948401946001909101908401611c5f565b5085821015611c9c5787850151600019600388901b60f8161c191681555b5050505050600190811b01905550565b600060018201611ccc57634e487b7160e01b600052601160045260246000fd5b5060010190565b6001600160a01b0385811682528416602082015260408101839052608060608201819052600090611d06908301846117ee565b9695505050505050565b600060208284031215611d2257600080fd5b815161154581611797565b60008351611d3f8184602088016117ca565b835190830190611d538183602088016117ca565b01949350505050565b634e487b7160e01b600052603260045260246000fdfea26469706673582212207f589d23f1127d2a968298eefe4211d6ef41cdb0d06b32a07ef0f51fa09a1aac64736f6c63430008180033",
  "linkReferences": {},
  "deployedLinkReferences": {}
}