{
  "_format": "hh-sol-artifact-1",
  "contractName": "MockPYUSD",
  "sourceName": "contracts/MockPYUSD.sol",
  "abi": [
    {
      "inputs": [
        {
          "internalType": "address",
          "name": "initialOwner",
          "type": "address"
        }
      ],
      "stateMutability": "nonpayable",
      "type": "constructor"
    },
    {
      "inputs": [
        {
          "internalType": "address",
          "name": "spender",
          "type": "address"
        },
        {
          "internalType": "uint256",
          "name": "allowance",
          "type": "uint256"
        },
        {
          "internalType": "uint256",
          "name": "needed",
          "type": "uint256"
        }
      ],
      "name": "ERC20InsufficientAllowance",
      "type": "error"
    },
    {
      "inputs": [
        {
          "internalType": "address",
          "name": "sender",
          "type": "address"
        },
        {
          "internalType": "uint256",
          "name": "balance",
          "type": "uint256"
        },
        {
          "internalType": "uint256",
          "name": "needed",
          "type": "uint256"
        }
      ],
      "name": "ERC20InsufficientBalance",
      "type": "error"
    },
    {
      "inputs": [
        {
          "internalType": "address",
          "name": "approver",
          "type": "address"
        }
      ],
      "name": "ERC20InvalidApprover",
      "type": "error"
    },
    {
      "inputs": [
        {
          "internalType": "address",
          "name": "receiver",
          "type": "address"
        }
      ],
      "name": "ERC20InvalidReceiver",
      "type": "error"
    },
    {
      "inputs": [
        {
          "internalType": "address",
          "name": "sender",
          "type": "address"
        }
      ],
      "name": "ERC20InvalidSender",
      "type": "error"
    },
    {
      "inputs": [
        {
          "internalType": "address",
          "name": "spender",
          "type": "address"
        }
      ],
      "name": "ERC20InvalidSpender",
      "type": "error"
    },
    {
      "inputs": [
        {
          "internalType": "address",
          "name": "owner",
          "type": "address"
        }
      ],
      "name": "OwnableInvalidOwner",
      "type": "error"
    },
    {
      "inputs": [
        {
          "internalType": "address",
          "name": "account",
          "type": "address"
        }
      ],
      "name": "OwnableUnauthorizedAccount",
      "type": "error"
    },
    {
      "anonymous": false,
      "inputs": [
        {
          "indexed": true,
          "internalType": "address",
          "name": "owner",
          "type": "address"
        },
        {
          "indexed": true,
          "internalType": "address",
          "name": "spender",
          "type": "address"
        },
        {
          "indexed": false,
          "internalType": "uint256",
          "name": "value",
          "type": "uint256"
        }
      ],
      "name": "Approval",
      "type": "event"
    },
    {
      "anonymous": false,
      "inputs": [
        {
          "indexed": true,
          "internalType": "address",
          "name": "previousOwner",
          "type": "address"
        },
        {
          "indexed": true,
          "internalType": "address",
          "name": "newOwner",
          "type": "address"
        }
      ],
      "name": "OwnershipTransferred",
      "type": "event"
    },
    {
      "anonymous": false,
      "inputs": [
        {
          "indexed": true,
          "internalType": "address",
          "name": "from",
          "type": "address"
        },
        {
          "indexed": true,
          "internalType": "address",
          "name": "to",
          "type": "address"
        },
        {
          "indexed": false,
          "internalType": "uint256",
          "name": "value",
          "type": "uint256"
        }
      ],
      "name": "Transfer",
      "type": "event"
    },
    {
      "inputs": [
        {
          "internalType": "address",
          "name": "owner",
          "type": "address"
        },
        {
          "internalType": "address",
          "name": "spender",
          "type": "address"
        }
      ],
      "name": "allowance",
      "outputs": [
        {
          "internalType": "uint256",
          "name": "",
          "type": "uint256"
        }
      ],
      "stateMutability": "view",
      "type": "function"
    },
    {
      "inputs": [
        {
          "internalType": "address",
          "name": "spender",
          "type": "address"
        },
        {
          "internalType": "uint256",
          "name": "value",
          "type": "uint256"
        }
      ],
      "name": "approve",
      "outputs": [
        {
          "internalType": "bool",
          "name": "",
          "type": "bool"
        }
      ],
      "stateMutability": "nonpayable",
      "type": "function"
    },
    {
      "inputs": [
        {
          "internalType": "address",
          "name": "account",
          "type": "address"
        }
      ],
      "name": "balanceOf",
      "outputs": [
        {
          "internalType": "uint256",
          "name": "",
          "type": "uint256"
        }
      ],
      "stateMutability": "view",
      "type": "function"
    },
    {
      "inputs": [
        {
          "internalType": "uint256",
          "name": "amount",
          "type": "uint256"
        }
      ],
      "name": "burn",
      "outputs": [],
      "stateMutability": "nonpayable",
      "type": "function"
    },
    {
      "inputs": [],
      "name": "decimals",
      "outputs": [
        {
          "internalType": "uint8",
          "name": "",
          "type": "uint8"
        }
      ],
      "stateMutability": "pure",
      "type": "function"
    },
    {
      "inputs": [],
      "name": "getMaxSupply",
      "outputs": [
        {
          "internalType": "uint256",
          "name": "",
          "type": "uint256"
        }
      ],
      "stateMutability": "pure",
      "type": "function"
    },
    {
      "inputs": [
        {
          "internalType": "uint256",
          "name": "amount",
          "type": "uint256"
        }
      ],
      "name": "mint",
      "outputs": [],
      "stateMutability": "nonpayable",
      "type": "function"
    },
    {
      "inputs": [
        {
          "internalType": "address",
          "name": "to",
          "type": "address"
        },
        {
          "internalType": "uint256",
          "name": "amount",
          "type": "uint256"
        }
      ],
      "name": "mintTo",
      "outputs": [],
      "stateMutability": "nonpayable",
      "type": "function"
    },
    {
      "inputs": [],
      "name": "name",
      "outputs": [
        {
          "internalType": "string",
          "name": "",
          "type": "string"
        }
      ],
      "stateMutability": "view",
      "type": "function"
    },
    {
      "inputs": [],
      "name": "owner",
      "outputs": [
        {
          "internalType": "address",
          "name": "",
          "type": "address"
        }
      ],
      "stateMutability": "view",
      "type": "function"
    },
    {
      "inputs": [],
      "name": "renounceOwnership",
      "outputs": [],
      "stateMutability": "nonpayable",
      "type": "function"
    },
    {
      "inputs": [],
      "name": "symbol",
      "outputs": [
        {
          "internalType": "string",
          "name": "",
          "type": "string"
        }
      ],
      "stateMutability": "view",
      "type": "function"
    },
    {
      "inputs": [],
      "name": "totalSupply",
      "outputs": [
        {
          "internalType": "uint256",
          "name": "",
          "type": "uint256"
        }
      ],
      "stateMutability": "view",
      "type": "function"
    },
    {
      "inputs": [
        {
          "internalType": "address",
          "name": "to",
          "type": "address"
        },
        {
          "internalType": "uint256",
          "name": "value",
          "type": "uint256"
        }
      ],
      "name": "transfer",
      "outputs": [
        {
          "internalType": "bool",
          "name": "",
          "type": "bool"
        }
      ],
      "stateMutability": "nonpayable",
      "type": "function"
    },
    {
      "inputs": [
        {
          "internalType": "address",
          "name": "from",
          "type": "address"
        },
        {
          "internalType": "address",
          "name": "to",
          "type": "address"
        },
        {
          "internalType": "uint256",
          "name": "value",
          "type": "uint256"
        }
      ],
      "name": "transferFrom",
      "outputs": [
        {
          "internalType": "bool",
          "name": "",
          "type": "bool"
        }
      ],
      "stateMutability": "nonpayable",
      "type": "function"
    },
    {
      "inputs": [
        {
          "internalType": "address",
          "name": "newOwner",
          "type": "address"
        }
      ],
      "name": "transferOwnership",
      "outputs": [],
      "stateMutability": "nonpayable",
      "type": "function"
    }
  ],
  "bytecode": "0x60806040523480156200001157600080fd5b506040516200128f3803806200128f8339810160408190526200003491620002c7565b8060405180604001604052806009815260200168135bd8dad4165554d160ba1b815250604051806040016040528060068152602001651354165554d160d21b8152508160039081620000879190620003a0565b506004620000968282620003a0565b5050506001600160a01b038116620000c957604051631e4fbdf760e01b8152600060048201526024015b60405180910390fd5b620000d48162000104565b50620000fd81620000e86006600a62000581565b620000f790620f424062000592565b62000156565b50620005c2565b600580546001600160a01b038381166001600160a01b0319831681179093556040519116919082907f8be0079c531659141344cd1fd0a4f28419497f9722a3daafe3b4186f6b6457e090600090a35050565b6001600160a01b038216620001825760405163ec442f0560e01b815260006004820152602401620000c0565b620001906000838362000194565b5050565b6001600160a01b038316620001c3578060026000828254620001b79190620005ac565b90915550620002379050565b6001600160a01b03831660009081526020819052604090205481811015620002185760405163391434e360e21b81526001600160a01b03851660048201526024810182905260448101839052606401620000c0565b6001600160a01b03841660009081526020819052604090209082900390555b6001600160a01b038216620002555760028054829003905562000274565b6001600160a01b03821660009081526020819052604090208054820190555b816001600160a01b0316836001600160a01b03167fddf252ad1be2c89b69c2b068fc378daa952ba7f163c4a11628f55a4df523b3ef83604051620002ba91815260200190565b60405180910390a3505050565b600060208284031215620002da57600080fd5b81516001600160a01b0381168114620002f257600080fd5b9392505050565b634e487b7160e01b600052604160045260246000fd5b600181811c908216806200032457607f821691505b6020821081036200034557634e487b7160e01b600052602260045260246000fd5b50919050565b601f8211156200039b576000816000526020600020601f850160051c81016020861015620003765750805b601f850160051c820191505b81811015620003975782815560010162000382565b5050505b505050565b81516001600160401b03811115620003bc57620003bc620002f9565b620003d481620003cd84546200030f565b846200034b565b602080601f8311600181146200040c5760008415620003f35750858301515b600019600386901b1c1916600185901b17855562000397565b600085815260208120601f198616915b828110156200043d578886015182559484019460019091019084016200041c565b50858210156200045c5787850151600019600388901b60f8161c191681555b5050505050600190811b01905550565b634e487b7160e01b600052601160045260246000fd5b600181815b80851115620004c3578160001904821115620004a757620004a76200046c565b80851615620004b557918102915b93841c939080029062000487565b509250929050565b600082620004dc575060016200057b565b81620004eb575060006200057b565b81600181146200050457600281146200050f576200052f565b60019150506200057b565b60ff8411156200052357620005236200046c565b50506001821b6200057b565b5060208310610133831016604e8410600b841016171562000554575081810a6200057b565b62000560838362000482565b80600019048211156200057757620005776200046c565b0290505b92915050565b6000620002f260ff841683620004cb565b80820281158282048414176200057b576200057b6200046c565b808201808211156200057b576200057b6200046c565b610cbd80620005d26000396000f3fe608060405234801561001057600080fd5b50600436106101005760003560e01c806370a0823111610097578063a0712d6811610066578063a0712d68146101fe578063a9059cbb14610211578063dd62ed3e14610224578063f2fde38b1461025d57600080fd5b806370a08231146101aa578063715018a6146101d35780638da5cb5b146101db57806395d89b41146101f657600080fd5b8063313ce567116100d3578063313ce5671461016b57806342966c681461017a578063449a52f81461018f5780634c0f38c2146101a257600080fd5b806306fdde0314610105578063095ea7b31461012357806318160ddd1461014657806323b872dd14610158575b600080fd5b61010d610270565b60405161011a9190610993565b60405180910390f35b6101366101313660046109fe565b610302565b604051901515815260200161011a565b6002545b60405190815260200161011a565b610136610166366004610a28565b61031c565b6040516006815260200161011a565b61018d610188366004610a64565b610340565b005b61018d61019d3660046109fe565b6103e5565b61014a610480565b61014a6101b8366004610a7d565b6001600160a01b031660009081526020819052604090205490565b61018d6104a0565b6005546040516001600160a01b03909116815260200161011a565b61010d6104b4565b61018d61020c366004610a64565b6104c3565b61013661021f3660046109fe565b610570565b61014a610232366004610a9f565b6001600160a01b03918216600090815260016020908152604080832093909416825291909152205490565b61018d61026b366004610a7d565b61057e565b60606003805461027f90610ad2565b80601f01602080910402602001604051908101604052809291908181526020018280546102ab90610ad2565b80156102f85780601f106102cd576101008083540402835291602001916102f8565b820191906000526020600020905b8154815290600101906020018083116102db57829003601f168201915b5050505050905090565b6000336103108185856105b9565b60019150505b92915050565b60003361032a8582856105cb565b61033585858561064a565b506001949350505050565b600081116103695760405162461bcd60e51b815260040161036090610b0c565b60405180910390fd5b336000908152602081905260409020548111156103d85760405162461bcd60e51b815260206004820152602760248201527f4d6f636b50595553443a20496e73756666696369656e742062616c616e6365206044820152663a3790313ab93760c91b6064820152608401610360565b6103e233826106a9565b50565b6103ed6106df565b6001600160a01b0382166104525760405162461bcd60e51b815260206004820152602660248201527f4d6f636b50595553443a2043616e6e6f74206d696e7420746f207a65726f206160448201526564647265737360d01b6064820152608401610360565b600081116104725760405162461bcd60e51b815260040161036090610b0c565b61047c828261070c565b5050565b600061048e6006600a610c4e565b61049b9062989680610c5d565b905090565b6104a86106df565b6104b26000610742565b565b60606004805461027f90610ad2565b600081116104e35760405162461bcd60e51b815260040161036090610b0c565b6104ef6006600a610c4e565b6104fc90620f4240610c5d565b8111156105665760405162461bcd60e51b815260206004820152603260248201527f4d6f636b50595553443a2043616e6e6f74206d696e74206d6f7265207468616e60448201527120314d20746f6b656e73206174206f6e636560701b6064820152608401610360565b6103e2338261070c565b60003361031081858561064a565b6105866106df565b6001600160a01b0381166105b057604051631e4fbdf760e01b815260006004820152602401610360565b6103e281610742565b6105c68383836001610794565b505050565b6001600160a01b03838116600090815260016020908152604080832093861683529290522054600019811015610644578181101561063557604051637dc7a0d960e11b81526001600160a01b03841660048201526024810182905260448101839052606401610360565b61064484848484036000610794565b50505050565b6001600160a01b03831661067457604051634b637e8f60e11b815260006004820152602401610360565b6001600160a01b03821661069e5760405163ec442f0560e01b815260006004820152602401610360565b6105c6838383610869565b6001600160a01b0382166106d357604051634b637e8f60e11b815260006004820152602401610360565b61047c82600083610869565b6005546001600160a01b031633146104b25760405163118cdaa760e01b8152336004820152602401610360565b6001600160a01b0382166107365760405163ec442f0560e01b815260006004820152602401610360565b61047c60008383610869565b600580546001600160a01b038381166001600160a01b0319831681179093556040519116919082907f8be0079c531659141344cd1fd0a4f28419497f9722a3daafe3b4186f6b6457e090600090a35050565b6001600160a01b0384166107be5760405163e602df0560e01b815260006004820152602401610360565b6001600160a01b0383166107e857604051634a1406b160e11b815260006004820152602401610360565b6001600160a01b038085166000908152600160209081526040808320938716835292905220829055801561064457826001600160a01b0316846001600160a01b03167f8c5be1e5ebec7d5bd14f71427d1e84f3dd0314c0f7b2291e5b200ac8c7c3b9258460405161085b91815260200190565b60405180910390a350505050565b6001600160a01b0383166108945780600260008282546108899190610c74565b909155506109069050565b6001600160a01b038316600090815260208190526040902054818110156108e75760405163391434e360e21b81526001600160a01b03851660048201526024810182905260448101839052606401610360565b6001600160a01b03841660009081526020819052604090209082900390555b6001600160a01b03821661092257600280548290039055610941565b6001600160a01b03821660009081526020819052604090208054820190555b816001600160a01b0316836001600160a01b03167fddf252ad1be2c89b69c2b068fc378daa952ba7f163c4a11628f55a4df523b3ef8360405161098691815260200190565b60405180910390a3505050565b60006020808352835180602085015260005b818110156109c1578581018301518582016040015282016109a5565b506000604082860101526040601f19601f8301168501019250505092915050565b80356001600160a01b03811681146109f957600080fd5b919050565b60008060408385031215610a1157600080fd5b610a1a836109e2565b946020939093013593505050565b600080600060608486031215610a3d57600080fd5b610a46846109e2565b9250610a54602085016109e2565b9150604084013590509250925092565b600060208284031215610a7657600080fd5b5035919050565b600060208284031215610a8f57600080fd5b610a98826109e2565b9392505050565b60008060408385031215610ab257600080fd5b610abb836109e2565b9150610ac9602084016109e2565b90509250929050565b600181811c90821680610ae657607f821691505b602082108103610b0657634e487b7160e01b600052602260045260246000fd5b50919050565b60208082526028908201527f4d6f636b50595553443a20416d6f756e74206d75737420626520677265617465604082015267072207468616e20360c41b606082015260800190565b634e487b7160e01b600052601160045260246000fd5b600181815b80851115610ba5578160001904821115610b8b57610b8b610b54565b80851615610b9857918102915b93841c9390800290610b6f565b509250929050565b600082610bbc57506001610316565b81610bc957506000610316565b8160018114610bdf5760028114610be957610c05565b6001915050610316565b60ff841115610bfa57610bfa610b54565b50506001821b610316565b5060208310610133831016604e8410600b8410161715610c28575081810a610316565b610c328383610b6a565b8060001904821115610c4657610c46610b54565b029392505050565b6000610a9860ff841683610bad565b808202811582820484141761031657610316610b54565b8082018082111561031657610316610b5456fea2646970667358221220387663cbababbdafcd71ca3d9e17ee19ed6bf9e261b9b5be05b8f3ff063f839d64736f6c63430008180033",
  "linkReferences": {},
  "deployedLinkReferences": {}
}